:1008520058696E206368616F204B53544E203632C4
:10086200002A2A2A2A2A2A2A2A2A2A2A2A2A2A2A10
:020872002A005A
:100874001209091208D57BFF7A0879521208007F01
:0F088400C01208F57BFF7A08796312080080FE26
:03090900D2A52252
:10082C00E4FDFCE4FBFAC3EB9FEE6480F8EA648021
:10083C009850070BBB00010A80EC0DBD00010CBCED
:05084C0003E1BDE8DE40
:010851002284
:0A08F5008F80C2A61208C1D2A7220C
:0D08C100C2A5D2A77F017E0012082CC2A79D
:0708CE007F017E0002082CEF
:1008D5007F381208F57F0E1208F57F011208F57FA3
:0408E500800208F590
:0A08FF008F80D2A61208C1D2A722F2
:060800008B088A09890A39
:100806001208AC8F0BE50B601CAB08AA09A90A12EB
:100816000893FF1208FF7401250AF50AE43509F565
:0508260009150B80E044
:01082B0022AA
:030000000208E90A
:0C08E900787FE4F6D8FD75810B020874DE
:10089300BB010689828A83E0225002E722BBFE0263
:0908A300E32289828A83E4932296
:1008AC00E4FFFE120893600C0FEF70010E09E97063
:0508BC00F20A80EF22AA
:00000001FF
