:03000B00020CC91B
:100CC900C0E0C0D075D008C28C7818E6FE08E6F5F9
:100CD9008AEEF58CD28C781B06E618700106D0D006
:030CE900D0E03226
:100C7600C2AFE4781AF608F6C28C5389F0438901AC
:100C86007818767D0876DC18E6FE08E6F58AEEF535
:0A0C96008CD2B9D2A9D28CD2AF22C1
:0B0D9000C2AF781AE6FE08E6FFD2AF03
:010D9B002235
:040CEC00AD07AC069E
:100CF000120D90AB07AA06120D90C3EF9BFFEE9A60
:0D0D0000FED3EF9DEE9C500543870180EA75
:010D0D0022C3
:070DC2007F017E00020CEC32
:070DC9007F647E00020CECC8
:060DDE00120DC9020DC94F
:0F0D6600120DDE120DDE120DDE120DDE020DDE9D
:070DD0007F327E00020CECF3
:070DD7007F0A7E00020CEC14
:100B7E0049324320536C61766520202056322E3048
:100B8E00000A77616974696E672034204D61737451
:100B9E0065720A000A5265637620257820627974A0
:100BAE0065732020200A000A53656E742025782074
:0A0BBE0062797465732020200A009C
:10060200907FE2E04480F0120C76120CA07BFF7A1D
:100612000B797E1202707BFF7A0B798F12027012B5
:100622000DC97D887F907E011207EE900202E004E0
:10063200F0900000E0F9A3E0FAA3E0900207C9F00D
:10064200A3EAF0A3E9F07B017A007904120B2F9060
:100652000203EFF0BF0B24900000E0FBA3E0FAA33B
:10066200E0F9120507900003F07BFF7A0B79A29064
:100672000207F0120270120DC980B0900203E0B4BA
:100682000FA9E4FF900003E0FEEFC39E501B740429
:100692002FF582E43400F583E0FE74032FF582E443
:1006A2003401F583EEF00F80DB900000E0F9A3E067
:1006B200FAA3E0900207C9F0A3EAF0A3E9F07B01F4
:1006C2007A017903120A13900203EFF064066003C1
:1006D20002062D900000E0FBA3E0FAA3E0F9120568
:1006E20007900003F07BFF7A0B79B5900207F012B6
:0806F2000270120DC902062D71
:100D41000014001B002D005A00B4016802D005A058
:040D5100FFFF0000A0
:070C0600D2AF7D107C27FF37
:100C0D00A907E490025AF0A3F0900259E0B5011E35
:100C1D0090025BE004F0700690025AE004F0C3907D
:100C2D00025BE09D90025AE09C40DE7F01227F0036
:010C3D002294
:0A07EE00AB05900204EEF0A3EFF05B
:1007F800D39441EE9403500CC3E09406900204E0B5
:10080800940050037F01227F407E9CEEC313FEEFCD
:1008180013FF900204E0FCA3E0FD120581E4FDED66
:1008280025E02441F582E4340DF583C37401939FD8
:10083800E4939E50030D80E7EDD3940740037F01B6
:1008480022EDC394044004ED247CFDAF058FDC4306
:1008580091C07C007D287E037FE812058190020408
:10086800E0FCA3E0FDD39464EC94005005A3740F5E
:100878008016D3ED9490EC9401900206500974020E
:10088800F0A37458F08006E4F0A374A0F0AC06ADB1
:1008980007900206E0FEA3E0FF120581D3EF947FE4
:1008A800EE940040027F7FEF4480F5DB43B70243BC
:0B08B800A702AF038FDF43DC047F00CA
:0108C3002212
:100AD800C2AF43DC408FDE53DCEF43DC2053DCFB4A
:100AE800E4900265F09002597403F090025EEBF016
:100AF800A3EAF0A3E9F090026AE090025CF0D20267
:100B0800D201D2AF7D107C277F03120C0DBF0111DB
:100B180053DCDF53DCBF43DC409002597409F0FF1B
:070B280022900259E0FF22B8
:100A7E00C2AF43DC40EF4401F5DE53DCEF43DC2034
:100A8E0053DCFBE4900265F09002597407F090027B
:100A9E0061EBF0A3EAF0A3E9F090026FE090025C44
:100AAE00F0D202C201D2AF7D107C277F07120C0D4F
:100ABE00BF011153DCDF53DCBF43DC40900259749D
:0A0ACE0009F0FF22900259E0FF2218
:100A1300C2AF90025EEBF0A3EAF0A3E9F0C202D208
:100A23000153DCEFE4900265F090025EE0FBA3E08B
:100A3300FAA3E0F9900265E0F582758300120520C0
:100A4300F5DE900265E004F09002597405F0120C93
:100A530006BF010D53DCBFC2009002597409F0FFB9
:100A630022900265E0FF900207E0FBA3E0FAA3E017
:0B0A7300F9EF12054D900259E0FF2240
:100B2F00C2AF53DCBF900261EBF0A3EAF0A3E9F090
:100B3F00C202C201E4900265F0900259740AF043B8
:100B4F00DC40120C06BF010D53DCBFC200900259EE
:100B5F007409F0FF22900265E0FF900207E0FBA30B
:0F0B6F00E0FAA3E0F9EF12054D900259E0FF22E2
:0300430002006850
:10006800C0E0C083C082C0D075D01090025DE5DDCD
:10007800F053DDDF90025AE4F0A3F0A201820250AF
:100088006590025DE0FF30E20E900264E5DEF090DC
:100098000259740EF0804FEF30E10E43DC1075DE2C
:1000A800FF900259740DF0803D90025CE0FF14FE51
:1000B800900265E0FDD39E501D90025EE0FBA3E038
:1000C800FAA3E0F98D82758300120520F5DE90020F
:1000D80065E004F08010EDB5170C43DC1075DEFF09
:1000E8009002597404F0A202B00140030201A0E595
:1000F800DC20E2047F0180027F00900265E0FE7050
:10010800047D0180027D00EF5D602D90025DE0308E
:10011800E11243DC10900264E5DEF0900259740DA0
:10012800F0020267900264E5DEF090025CE0640190
:10013800600343DC0402026190025CE0FFEEC39FAF
:10014800502E900265E024FFFDE434FFFC9002612C
:10015800E0FBA3E0FAA3E0F98D828C83E5DE1205CB
:100168005F900265E004F0E0B5172D53DCFB8028B2
:1001780043DC10900265E024FFFFE434FFFE9002A8
:1001880061E0FBA3E0FAA3E0F98F828E83E5DE123B
:10019800055F9002597408F030020302026790026A
:1001A8005DE0FF30E63A20000302026730010A9062
:1001B80002597406F0C2008021900261E0FBA3E0BE
:1001C800FAA3E0F9900265E0F582758300E5DE1296
:1001D800055FC200900259740BF053DCBF0202673E
:1001E800E5DC30E2047E0180027E00E5DC30E304D9
:1001F8007D0180027D00ED5E601953DCF7D200EFCF
:1002080030E408900259740FF08054900264E5DEDF
:10021800F0804C30004920011B900261E0FBA3E014
:10022800FAA3E0F9900265E0F582758300E5DE1235
:10023800055F802590025DE030E10575DEFF801FD7
:1002480090025EE0FBA3E0FAA3E0F9900265E0F516
:1002580082758300120520F5DE900265E004F0D077
:08026800D0D082D083D0E03237
:0300000002098072
:0500630053CFFD003247
:1009800074C1F59D75A8C078FFE4F6D8FD75812087
:030990000209CE8B
:100C3E008010801F001180008010001F0010000027
:100C4E00000F801080108010000F00000000801038
:100C5E00C01FA010A010A010000000008000C00F48
:080C6E008010801080100008C6
:0C0D8300410258004102480041024900B2
:08000300907E01E020E7F922E4
:080DBA00907E05E020E7F9221C
:080D5500120D5D120D9FE4FF79
:090D5D00120003907E00EFF02269
:030D9C00120D5DD8
:090D9F00120DBA907E04EFF0225F
:090DA800120003907E02EFF0221C
:090DB100120DBA907E06EFF0224B
:100BC8007FE2120D9C7FAE120D9C7FA4120D5D1268
:100BD8000D9F7FA9120D5D120D9F7FA0120D5D1252
:100BE8000D9F7FEE120D557FC0120D5DE4FF120DB3
:0E0BF8009F7FC0120D9F7FAF120D5D020D9FFB
:0E0D7500EF44B8FF120D9FED44B8FF020D5D74
:0B004600FDFF120D75900242E0FDFF6F
:0E005100EF547FFF120D9FED547FFF020D5DF7
:03005F00020DB1DE
:030DE400020DA855
:10000E00AE9D439D3CE4FCAF04AD04120D75E4FDC2
:10001E00FF120051E4FF12005F120DE40DEDB43D2E
:10002E00F30CECB404E1E4900258F0900248F0AF07
:03003E00068F9D8D
:01004100229C
:0506FA0090023CEFF04E
:1006FF00E4900246F0A3F0C20490023EE0F9A3E0BA
:10070F00FAA3E0900243C9F0A3EAF0A3E9F03003A3
:10071F00069002477402F090023CE0900241F09084
:10072F00023DE0FF90023CE02FFFE433FE900241D8
:10073F00E0FDC39FEE6480F874809840030207EDDC
:10074F00ED947940030207ED900241E0FFD3943C12
:10075F00400DD204EF75F03D84A3E5F0F0800690D4
:10076F000241E0A3F0900247E0120046900243E0FE
:10077F00FBA3E0FAA3E0F9A3E030040EF582758342
:10078F0000120520FF12005F800CF58275830012A6
:10079F000520FF120DE4900247E00412004690027C
:1007AF0046E02401FFE433FE900243E0FBA3E0FAAE
:1007BF00A3E0F930040D8F828E83120520FF120003
:1007CF005F800B8F828E83120520FF120DE4900243
:0E07DF0046E02402F0900241E004F002072EF2
:0107ED0022E9
:1003EC00900232E0FBA3E475F0011205ECA9F0FADF
:1003FC00120507900230F0E0FF120D2C90022FEF47
:10040C00F0FB900258E0FF900248E0FDA3E0900260
:02041C0038F0B6
:07041E00900235EFF0A90583
:10042500907FE0E0900239F0E4907FE0F090023AAE
:1004350074E0F0A3E4F0FD900238E06045ED20E0C3
:1004450018EB75F00EA4FFED7583002FFFE58335DE
:10045500F0CF2401CF34008016EB75F00EA4FFED2C
:100465007583002FFFE58335F0CF24FFCF34FFFEE2
:1004750090023AE0F8A3E02FF582E83EF583E0F438
:100485008042ED20E018EB75F00EA4FFED758300BA
:100495002FFFE58335F0CF2401CF34008016EB75AF
:1004A500F00EA4FFED7583002FFFE58335F0CF2413
:1004B500FFCF34FFFE90023AE0F8A3E02FF582E883
:1004C5003EF583E0FF744A2DF582E43402F583EFAF
:1004D500F00DED640E600302043C900235E0FFE987
:1004E50024FF920390023D7407F0A37401F0A374F6
:1004F50002F0A3744AF01206FA900239E0907FE008
:01050500F005
:0105060022D2
:0C0D0E00900258E02407F0900230E0FF53
:100D1A00EF540FFFD39409EF50042430FF222437F5
:020D2A00FF22A6
:100D2C00EF54F0C4540FFFD39409EF50042430FF58
:050D3C00222437FF2214
:0B027000900204EBF0A3EAF0A3E9F019
:10027B009002327401F0A37402F0A37407F09002A1
:10028B0031E59DF0439D3C900248E0D3940340023E
:10029B00E4F0900204E0FBA3E0FAA3E0F9120507F7
:1002AB00FF70030203E590022FEFF090000112059F
:1002BB0020FD90022FE0FCFEEDFBEBFFECD39480D6
:1002CB0050D0900204E0FB120507FFB40D11900211
:1002DB0005E475F0011205D6E4900258F080B3EFF7
:1002EB00B40A17900205E475F0011205D6E49002EA
:1002FB0058F0900248E004F08098EF642560030208
:10030B0003BC90020575F0011205D6900204E0FBC8
:10031B00A3E0FAA3E0F9120507FC6464702B9002CA
:10032B000575F0011205D6900232E0FBA3E475F0DF
:10033B00011205ECA9F0FA120507900230F0E05417
:10034B000F243090022F02039CEC6478700D120383
:10035B00EC120D0E90022FEF0203AD900204E0FBA6
:10036B00A3E0FAA3E0F9120507FC64777030900262
:10037B000575F0011205D61203EC120D0E120408CE
:10038B00900258E02407F01203EC120D0E90022F8E
:10039B00EF12040C900258E02407F002029D900229
:1003AB002FECF0FB900258E0FF900248E0FDA38099
:1003BB0012900258E0FF900248E0FD90022FE0FB04
:1003CB00900249120419900258E02407F09002059C
:1003DB00E475F0011205D602029D900231E0F59D05
:0103EB0022EF
:1008C400907FE0E0900205F07EE0E4907FE0F0F5B8
:1008D400828E83E0FDA3E0FFEDB41F07EFB4E003D5
:1008E4007F0022C20390023D7407F0A374FFF0A3BB
:1008F400740CF0A3743EF0E4FF1206FAC2039002F3
:100904003D7407F0A374FFF0A3740CF0A3744CF0CF
:100914007F081206FAC20390023D7407F0A374FF25
:10092400F0A3740CF0A3745AF07F181206FAC203F1
:1009340090023D7407F0A374FFF0A3740CF0A37449
:100944004CF07F201206FAC20390023D7407F0A314
:1009540074FFF0A3740CF0A3743EF07F281206FA1F
:10096400C20390023D7407F0A374FFF0A3740CF06B
:0B097400A37468F07F301206FA7F01C8
:01097F002255
:100CA000900204E59DF0439D3C120003120BC81214
:100CB000000E7FC0120D55120D9F1208C4EF600286
:080CC00080FE900204E0F59DA6
:010CC8002209
:10099300020602E493A3F8E493A34003F68001F272
:1009A30008DFF48029E493A3F85407240CC8C33365
:1009B300C4540F4420C8834004F456800146F6DF34
:1009C300E4800B0102040810204080900D83E47E34
:1009D300019360BCA3FF543F30E509541FFEE49329
:1009E300A360010ECF54C025E060A840B8E493A3F0
:1009F300FAE493A3F8E493A3C8C582C8CAC583CA1B
:100A0300F0A3C8C582C8CAC583CADFE9DEE780BED2
:010D8F000063
:10050700BB010689828A83E0225002E722BBFE02F2
:09051700E32289828A83E4932225
:10052000BB010CE58229F582E5833AF583E0225090
:1005300006E92582F8E622BBFE06E92582F8E222DA
:0D054000E58229F582E5833AF583E49322F4
:10054D00BB010689828A83F0225002F722BBFE018D
:02055D00F32287
:10055F00F8BB010DE58229F582E5833AF583E8F0D2
:10056F00225006E92582C8F622BBFE05E92582C87E
:02057F00F22266
:10058100BC000BBE0029EF8DF084FFADF022E4CC5E
:10059100F875F008EF2FFFEE33FEEC33FCEE9DEC27
:1005A100984005FCEE9DFE0FD5F0E9E4CEFD22ED6D
:1005B100F8F5F0EE8420D21CFEADF075F008EF2FB7
:1005C100FFED33FD4007985006D5F0F222C398FDA8
:0505D1000FD5F0EA2245
:1005D600C5F0F8A3E028F0C5F0F8E58215827002B0
:0605E6001583E038F0224D
:1005EC00A3F8E0C5F025F0F0E582158270021583C2
:0605FC00E0C838F0E8221F
:00000001FF
