:030000000203F008
:0500630053CFFD003247
:1003F00074C1F59D75A8C078FFE4F6D8FD75815DE0
:0304000002043EB5
:03000B0002057E6D
:10057E00C0E0C0D075D008C28C7810E6FE08E6F553
:10058E008AEEF58CD28C781306E618700106D0D060
:03059E00D0E03278
:10055400C2AFE47812F608F6C28C5389F0438901DD
:100564007810767D0876DC18E6FE08E6F58AEEF566
:0A0574008CD2B9D2A9D28CD2AF22EA
:0B066900C2AF7812E6FE08E6FFD2AF39
:010674002263
:0405C400AD07AC06CD
:1005C800120669AB07AA06120669C3EF9BFFEE9AEB
:0D05D800FED3EF9DEE9C500543870180EAA5
:0105E50022F3
:0706A5007F017E000205C485
:0706AC007F647E000205C41B
:0606C1001206AC0206ACBB
:0F0054001206C11206C11206C11206C10206C170
:0706B3007F327E000205C446
:0706BA007F0A7E000205C467
:1005E600444B33343030202D204C43442044656D39
:0F05F6006F0A00436F756E7420307825780A0005
:1004F900907FE2E04480F01205541205A1E4F52151
:100509007BFF7A0579E61200687BFF7A0579F98520
:0F05190021251200681206AC120528052180E189
:1004C1008010801F001180008010001F00100000AC
:1004D100000F801080108010000F000000008010BD
:1004E100C01FA010A010A010000000008000C00FCD
:0804F10080108010801000084B
:09068100015D00014D00014E0075
:08000300907E01E020E7F922E4
:08069D00907E05E020E7F92240
:08064A00120652120678E4FFCB
:09065200120003907E00EFF0227B
:0306750012065218
:0906780012069D907E04EFF022B1
:09068B00120003907E02EFF02240
:0906940012069D907E06EFF02293
:100483007FE21206757FAE1206757FA41206521222
:1004930006787FA91206521206787FA0120652121E
:1004A30006787FEE12064A7FC0120652E4FF120658
:0E04B300787FC01206787FAF120652020678DC
:0E065B00EF44B8FF120678ED44B8FF020652D5
:0706350012065BAD47AF4761
:0E063C00EF547FFF120678ED547FFF02065246
:0306C70002069494
:0306CA0002068B9A
:10052800AE9D439D3CE4FCAF04AD0412065BE4FDC4
:10053800FF12063CE4FF1206C71206CA0DBD3DF4C1
:0B0548000CBC04E3E4F55DF54D8E9D56
:010553002285
:02028F008F419D
:10029100E4F54BF54CC20185434885444985454AFF
:1002A100300003754C02854146E5412542FFE433A8
:1002B100FEC3E5469FEE6480F87480984003020314
:1002C1004CE5469479400302034CE546D3943C4007
:1002D1000DD201E54675F03D8485F04780038546E2
:1002E10047AD4CAF4C120635AB48AA49A94A30017B
:1002F1000F854B82758300120027FF1206C7800D00
:10030100854B82758300120027FF1206CAE54C0453
:10031100FDFF120635300116854B82758300A3ABB4
:1003210048AA49A94A120027FF1206C78014854B23
:1003310082758300A3AB48AA49A94A120027FF127C
:0B03410006CA054B054B05460202AA48
:01034C00228E
:1001B70014F912000EF535FF12061F8F34854E3DD8
:0601C700AB34AD4DAF5D4D
:0401CD008F3AA905B7
:1001D100907FE0E0F53EE4F0753FE0F540FDE53D60
:1001E1006041ED20E018EB75F00EA4FFED75830082
:1001F1002FFFE58335F0CF2401CF34008016EB7556
:10020100F00EA4FFED7583002FFFE58335F0CF24B9
:10021100FFCF34FFFEE5402FF582E53F3EF583E059
:10022100F4803EED20E018EB75F00EA4FFED758330
:10023100002FFFE58335F0CF2401CF34008016EB8A
:1002410075F00EA4FFED7583002FFFE58335F0CF28
:1002510024FFCF34FFFEE5402FF582E53F3EF583D5
:10026100E0FF744F2DF8A6070DED640E6003020147
:10027100DFE924FF9200754207754300754400755C
:0D028100454FAF3A12028F907FE0E53EF04E
:01028E00224D
:080605007407255DF55DAF35BA
:10060D0053070FEFD39409EF50042430FF22243702
:02061D00FF22BA
:10061F005307F0EFC4540FFFD39409EF5004243065
:06062F00FF222437FF2228
:060068008B228A2389248B
:10006E00753700753800753925859D36439D3CE5FD
:10007E004DD394034003E4F54DAB22AA23A92412D9
:10008E00000EFF70030201B3F53490000112002739
:10009E00FDEFFEEDFBEBFFE534D3948050DBAB229E
:1000AE0012000EFFB40D1074012524F524E435233F
:1000BE00F523E4F55D80C2EFB40A1274012524F530
:1000CE0024E43523F523E4F55D054D80ACEF64257E
:1000DE00600302019C042524F524E43523F523ABAB
:1000EE0022FAA92412000EFC6464702A042524F559
:1000FE0024E43523F523AB370539E539AA387002E8
:10010E00053814F912000EF535540F2430F53485E8
:10011E004E3DFB02018CEC64787017AB370539E568
:10012E0039AA38700205381201B71206058F34024B
:10013E00019CAB22AA23A92412000EFC6477704AFC
:10014E00042524F524E43523F523AB370539E539A9
:10015E00AA38700205381201B71206051201C274D0
:10016E0007255DF55DAB370539E539AA387002050F
:10017E00381201B71206058F34854E3DAB3412018D
:10018E00C97407255DF55D0200878C34800012016D
:10019E00C47407255DF55D74012524F524E435232B
:0801AE00F52302008785369D50
:0101B6002226
:10034D00907FE0E0900000F07EE0E4907FE0F0F53B
:10035D00828E83E0FD900001F07582008E83A3E014
:10036D00900002F0BD1F07E0B4E0037F0022C20041
:10037D007542077543FF7544047545C1E4FF1202CC
:10038D008FC2007542077543FF7544047545CF7FD5
:10039D000812028FC2007542077543FF754404753C
:1003AD0045DD7F1812028FC2007542077543FF7538
:1003BD0044047545CF7F2012028FC2007542077528
:1003CD0043FF7544047545C17F2812028FC2007525
:1003DD0042077543FF7544047545EB7F3012028F5C
:0203ED007F018E
:0103EF0022EB
:1005A100859D22439D3C1200031204831205287F7E
:1005B100C012064A12067812034DEF600280FE85D2
:0205C100229D79
:0105C3002215
:100403000204F9E493A3F8E493A34003F68001F212
:1004130008DFF48029E493A3F85407240CC8C333FA
:10042300C4540F4420C8834004F456800146F6DFC9
:10043300E4800B0102040810204080900681E47ED2
:10044300019360BCA3FF543F30E509541FFEE493BE
:10045300A360010ECF54C025E060A840B8E493A385
:10046300FAE493A3F8E493A3C8C582C8CAC583CAB0
:10047300F0A3C8C582C8CAC583CADFE9DEE780BE68
:01068A00006F
:10000E00BB010689828A83E0225002E722BBFE02F0
:09001E00E32289828A83E4932223
:10002700BB010CE58229F582E5833AF583E022508E
:1000370006E92582F8E622BBFE06E92582F8E222D8
:0D004700E58229F582E5833AF583E49322F2
:00000001FF
