:10000E0075100A75110112005E907F077403F0904F
:10001E007F09E0F0907F0574FFF0E511907F05B445
:10002E00010574FCF0800374FDF0AF10EF3395E022
:10003E00FE120085E511907F05B4010574FFF08076
:10004E000374FEF0AF10EF3395E0FE12008580CA08
:03000B000200A749
:1000A700C0E0C0D075D008C28CE513F58AE512F51B
:1000B7008CD28C781506E618700106D0D0D0E032C5
:10005E00C2AFE47814F608F6C28C5389F0438901D6
:10006E0075128A7513E1E513F58AE512F58CD2B98E
:07007E00D2A9D28CD2AF22FF
:0B00E500C2AF7814E6FE08E6FFD2AFC1
:0100F00022ED
:04008500AD07AC0611
:100089001200E5AB07AA061200E5C3EF9BFFEE9A43
:0D009900FED3EF9DEE9C500543870180EAE9
:0100A6002237
:030000000200C734
:1000C70074FEF595F5B1F5B2F5B3F5B4F5E17455F0
:0E00D700F5AE78FFE4F6D8FD75811502000E37
:00000001FF
