:0A00000002007478157401F2082262
:10000B004146EF8DF0A4A8F0CF8CF0A428CE8DF054
:10001B00A42EFE22BC000BBE0029EF8DF084FFAD99
:10002B00F022E4CCF875F008EF2FFFEE33FEEC3343
:10003B00FCEE9DEC984005FCEE9DFE0FD5F0E9E43F
:10004B00CEFD22EDF8F5F0EE8420D21CFEADF0755E
:10005B00F008EF2FFFED33FD4007985006D5F0F277
:10006B0022C398FD0FD5F0EA2278FFE4F6D8FD9075
:10007B00F0007F007E0CE4F0A3DFFCDEFA75F103E9
:10008B0075F20075F10075810D0200CC11AC119E5B
:10009B00D2AF22758901758ADF758CB1D2A9D28C4A
:1000AB0022758E015380F7438608E4F58E4386183C
:1000BB00758E02438010438610F58E75911FF58E59
:1000CB0022E4F594F59575960A75F10243F40853FD
:1000DB00F4FB75F29853F40F43F46053F5CF43F4EC
:1000EB000275F2ABE5F430E0FB53F4F7119775F1C1
:1000FB000675F5FFE4F5F1781504F208F2780D7446
:10010B0027F208F208F208F208E4F2780704F2E4A6
:10011B00F508F5097F01FE512C8E0C8F0DC2A9D36A
:10012B00E509950DE508950C401778077401F2E485
:10013B00F508F509050BE50B7002050AA290B392C1
:10014B0090D2A9315280D6780EE213135420FF18A7
:10015B00E213131354104FFF780FE2C31354404FA5
:10016B00FF08E254804F24F0603024A0604E24C07E
:10017B00607124906002411FE50A6002412BE50B80
:10018B0024A0601024A0601024BF6002412B110337
:10019B0074058022513D801E8077E50A6002412B59
:1001AB00E50B24A0600E24A0601024BF7072110315
:1001BB005136804B11035136801E8055E50A706015
:1001CB00E50B24A0601724A0601724BF7052110305
:1001DB00F2087405F2781EE4F27802F22211038021
:1001EB0026802EE50A7039E50B24A0601824A06048
:1001FB002024BF702B11037405F208F2781EE4F271
:10020B00780204F222513D51367405F27802E4F281
:10021B0022E4800811035136F27802F2F50AF50B4D
:10022B00227C007D70110D7D0A011FF208E4F2782B
:10023B001E2278157405F208740122C0E0758ADF5E
:0E024B00758CB10509E50970020508D0E03296
:047FFC0001FE01FE83
:00000001FF
