:100A31007597C075D85075D68075D76875D4FF7510
:100A41008E0243807F53868053858043901F53914C
:100A5100E0758E035380805390E0E4F58E1209F423
:040A610043972F2266
:1009F40043D608781376FF08763F08763F08763F9B
:100A040008763F08760B78307603783376037831AE
:100A140076FEE408F6783476607819768008767F76
:0D0A240008767F08767F08767F08767F22AF
:0B004E0090F0FFE0B4DE037401F0222C
:100A9500E4782DF608F608F6E5D6540E2406F50A90
:100AA5007508F07509FFE50A6014850982850883D4
:0E0AB500E4F0E509150970021508150A80E83D
:010AC3002210
:1007D7000F5D3F065B4F666D7D077F6F395E7779EB
:1007E70000116C0001030207040500090E060D083D
:1007F700000000000E7D001F1C1F1E1F1E1F1F1E56
:100807001F1E1F1D015300013C00015500015C0A1A
:10081700013B00014200014901044E0000000001B4
:10082700540004373F3F3F06045800000000044AC5
:1008370000000000015200015600015700023E006F
:0C084700000235000102400000013D00ED
:100A65007D80E4FF12DFE4920030000280FE75F124
:100A75000175EFB7E4F5F1120B0612002E120A31DB
:0F0A8500120026E4F5B8F5B975F820F5F9D2AFEF
:010A9400223F
:10006E00120A65E5531205A400920001B90101DDE3
:10007E0002021903024A04032D0503410603510728
:10008E00000003617B007A0079431206A3E54270FB
:10009E0026E545543FFFE546541FFD7B007A007967
:1000AE0035120AE7EF602B753B017818E674FFF600
:1000BE00D2C2754201801BE5475401FEE548653FFB
:1000CE007003EE653E600BE4F542053FE53F7002BE
:1000DE00053EE55C1205A400EF0B01200C000001AB
:1000EE0030AF48E5475401FE12085A745D2558F8A2
:1000FE00E67814F6745D2559F8E67815F6745D25E4
:10010E005AF8E67816F6745D255BF8E67817F6026F
:10011E0000717814A63708A63808A63908A63A0240
:10012E000071E5546401702FE544543FF54175F0BC
:10013E000A84F540E54175F00A8485F041745D2529
:10014E0041F8E67817F6745D2540F8E67816F6E481
:10015E0018F618F6020071E545543FF55B75F00A86
:10016E0084F55AE55B75F00A8485F05BE546541F0D
:10017E00F55975F00A84F558E55975F00A8485F03D
:10018E0059745D2558F8E67814F6745D2559F8E62D
:10019E007815F6745D255AF8E67816F6745D255BCB
:1001AE00F8E67817F6020071020071E4F555E55590
:1001BE00C39404500B744E2555F8E4F6055580EEA5
:1001CE00E4F5557814F608F608F608F6755302E5C8
:1001DE003C64147003020071746C253CF8E6F55211
:1001EE0074492555F8A652745D2552F8E6F55274F9
:1001FE00132555F8A652744D2555F8A652E55564AB
:10020E00046003020071F549020071E4F556F555DC
:10021E00E555C39404500E744E2555F8E67002054C
:10022E0056055580EBE5567008753D0175530480F3
:10023E0003E4F553E4F556F555020071E53D64010E
:10024E006003020327E55C1205A402620B02A70CF1
:10025E00000002CF7B007A00794A12094CEF60341D
:10026E007B007A00794A1208D98E3E8F3FEFF55601
:10027E00E53EF5575395FE75F10175F29B8556E5F2
:10028E0075F29B8557E675F2ABE4F5F14395017572
:10029E005306807D7553078078854E37854F388598
:1002AE00503985513AE54C75F00AA4254DF536E5E1
:1002BE004A75F00AA4254BF535755306E4F54280D0
:1002CE0050E54C75F00AA4254DF556E54A75F00A31
:1002DE00A4254BF557FF7E00AD567C00120003EFB0
:1002EE00602C5395FE75F10175F29BE4F5E175F204
:1002FE009BF5E275F29B8556E375F29B8557E47587
:10030E00F2ABF5F1439501755306F5428003755333
:10031E0007E4F555F53D020071E4F553020071E472
:10032E007814F608F608F6745D255CF8E67817F68C
:10033E000200717814765E08763F08763708767973
:10034E000200717814767908763308763F08763392
:0D035E00020071E4F55302007102007122EB
:100003008E0B8F0C8C0D8D0ED3E50C9417E50B9492
:1000130000500AE50E943BE50D940040037F002257
:030023007F012238
:100AE7008F0B8D0C8B0D8A0E890F1204ADB50C0C74
:0F0AF7009000011204C6B50B037F01227F00227D
:06094C008B0B8A0C890DE3
:10095200E4F50EF50F9000021204C675F00AA4FF2A
:100962009000031204C62FF50E6005D3940C4003C9
:100972007F0022AB0BAA0CA90D9000011204C6FF46
:100982001204AD75F00AA42FF50FE596B40108E53F
:100992000EB40203750E0DE50F600D747D250EF881
:0D09A200E6FFE50FD39F40037F00227F0199
:0109AF002225
:04085A008E0B8F0C66
:10085E00E4F50DF50E750F01F510E50C2401F50EFE
:10086E00E4350BF50D747D250FF8E6F510D3E50E86
:10087E009510E50D94004027050FE50E9510F50E29
:10088E00E50D9400F50DE50FB4020AE596B40105E9
:10089E0075101D80D8747D250FF8E6F51080CEE515
:1008AE000F75F00A84F55AE50F75F00A8485F05B32
:1008BE00AE0DAF0E7C007D0A1205058F58AE0DAF42
:0A08CE000E7C007D0A1205058D590D
:0108D80022FD
:0608D9008B0B8A0C890D57
:1008DF00E4F50EF50FF5109000021204C675F00A3C
:1008EF00A4FF9000031204C62FF50E90000112040E
:1008FF00C6FD7C001204AD75F00AA4AEF02DF51004
:10090F00EC3EF50FE596B4010FE50ED394024008C7
:10091F000510E5107002050FE50ED3940040137417
:10092F007C250EF8E62510F510E4350FF50F150EA2
:0C093F0080E6E51024FFFFE50F34FFFE0A
:01094B002289
:10002E0075F10153F4DFE5F430E6FB43F408E5F433
:0D003E0020E4FBE4F5F175952043950122C7
:1006A3008B0B8A0C890D4395080000AFE7EF543F8D
:1006B300FFAB0BAA0CA90D1204AD54C04F1204F3E7
:1006C300AFE9EF543FFFAB0BE50D2401F9E4350C23
:1006D300FA1204AD54C04F1204F3AFEAEF543FFFD4
:1006E300AB0BE50D2402F9E4350CFA1204AD54C04A
:1006F3004F1204F3AFEBEF541FFFAB0BE50D2403D5
:10070300F9E4350CFA1204AD54E04F1204F3AFEDE3
:10071300EFFEADEC7C00E42DFFEC3E5401FEAB0B91
:10072300E50D2404F9E4350CFA12055AE5F054FEFC
:0A0733004EFEEFEE8FF01205852256
:0608530001110101120079
:0400260043E8A822E1
:03004B000205CAE1
:1005CA00C0E0C0D075D000C000C007E59520E703A1
:1005DA0002069A53957FE53B70147818E6540AB4DC
:1005EA000A06E65455F680067818E6440AF6E553F4
:1005FA00C39405400E0555E555940240067553000F
:10060A00755500E5536402600302069AE5496017CE
:10061A00E53C640B6011E53C6409600B74142555D4
:10062A00F8E66408F68069E53C640B6006E53C641C
:10063A0009702174132555F8E6B4790C74132555FD
:10064A00F87600753C09804874132555F876797553
:10065A003C0B803CE555B404107814E6B54E04769C
:10066A0000802D7814A64E8027744E2555F8E6FF93
:10067A0074142555F8E6B5070974142555F876005B
:10068A00800E744E2555F8E6FF74142555F8A60712
:09069A00D007D000D0D0D0E0322E
:03005B0002036B32
:10036B00C0E0C0F0C083C082C0D075D000C000C058
:10037B0001C002C003C004C005C006C00720DD03D6
:10038B00020492C2DD12DFCC12004E782FE660031E
:10039B00020453782EE6D394005003020453E53C39
:1003AB00640B6008E53C640960020555E555B4052E
:1003BB0003755501782EE6F53C7600E53BB4011C40
:1003CB00E53C64106003020492C2C2C2C77818E60F
:1003DB00E4F6E64511F6753B00020492E53C641425
:1003EB00702DE5537018E5546006E55C640A600EE9
:1003FB007553017549017818E64440F6800EE553B4
:10040B00B402097553037818E654BFF6755500E529
:10041B003C64187072055C7818E6540AF6E55CB417
:10042B000D10E511C4540FF511E64511F6755C0A74
:10043B00800EE51125E025E0F5117818E64511F65B
:10044B00755500755305803F782DE6D394004037E2
:10045B00E6F5127600E553700DE55CB40A08E5127B
:10046B00B41003635401E553B40219E53C640B600B
:10047B0008E53C640960020555E555B4050375555F
:10048B0001753C0B120A95D007D006D005D004D0CD
:10049B0003D002D001D000D0D0D082D083D0F0D006
:0204AB00E0323D
:03006B000209B0D7
:1009B000C0E0C0F0C083C082C0D075D000C000C00D
:1009C00001C002C003C004C005C006C00730DF0973
:1009D000C2DF7F137D1912DFCFD007D006D005D03C
:1009E00004D003D002D001D000D0D0D082D083D0A8
:0409F000F0D0E03231
:0F0B060075C34875C2E575C11E75C602D2AD2212
:03002B00020AC402
:100AC400C0E0C0D075D000C00030C710C2C77818CD
:100AD400E6B4FF0476008004781876FFD000D0D006
:030AE400D0E0322D
:0300000002073DB7
:10073D0078FFE4F6D8FD90F0007F007E01E4F0A391
:0A074D00DFFCDEFA75818A020792D4
:1007570002006EE493A3F8E493A34003F68001F24A
:1007670008DFF48029E493A3F85407240CC8C333A3
:10077700C4540F4420C8834004F456800146F6DF72
:10078700E4800B01020408102040809007D7E47E24
:10079700019360BCA3FF543F30E509541FFEE49367
:1007A700A360010ECF54C025E060A840B8E493A32E
:1007B700FAE493A3F8E493A3C8C582C8CAC583CA59
:1007C700F0A3C8C582C8CAC583CADFE9DEE780BE11
:01085900009E
:1004AD00BB010689828A83E0225002E722BBFE024D
:0904BD00E32289828A83E4932280
:1004C600BB010CE58229F582E5833AF583E02250EB
:1004D60006E92582F8E622BBFE06E92582F8E22235
:0D04E600E58229F582E5833AF583E493224F
:1004F300BB010689828A83F0225002F722BBFE01E8
:02050300F322E1
:10050500BC000BBE0029EF8DF084FFADF022E4CCDA
:10051500F875F008EF2FFFEE33FEEC33FCEE9DECA3
:10052500984005FCEE9DFE0FD5F0E9E4CEFD22EDE9
:10053500F8F5F0EE8420D21CFEADF075F008EF2F33
:10054500FFED33FD4007985006D5F0F222C398FD24
:050555000FD5F0EA22C1
:10055A00BB010A89828A83E0F5F0A3E0225006876C
:10056A00F009E71922BBFE07E3F5F009E31922892E
:0B057A00828A83E493F5F07401932261
:10058500BB010A89828A83F0E5F0A3F0225006F7C1
:0F05950009A7F01922BBFE06F3E5F009F31922BE
:1005A400D083D082F8E4937012740193700DA3A3E6
:1005B40093F8740193F5828883E4737402936860FA
:0605C400EFA3A3A380DFFA
:00000001FF
