:0300000002000EED
:0C000E00787FE4F6D8FD7581100203B184
:1003EC0012015212003E120003120056120289E44E
:0B03FC00F5B8F5B9F5F8F5F9D2AF221D
:1003B1001203ECE4F5B07F007E80EF1F70011EEFA9
:0D03C1004E70F763B001AFB012002780E965
:0103CE00220C
:1001520075B2A3E4F58075B2A17580FF7586C4758A
:10016200B2A2F580F58675B2A0F580F58675B2A3C8
:10017200F59075B2A17590FF7591FF75B2A2F590D9
:10018200F59175B2A0F590F59175B2A175A0FFF544
:10019200A175B2A0F5A075B2A175B0FF75B1FF75DA
:0801A200B2A0F5B075B1FF2217
:10003E00E4F589F58AF58CF58BF58DD2A9D2ABD284
:04004E008CD28E22A0
:03000B000202529C
:10025200C0E0C0D075D000C006050EE50EAE0D7030
:1002620002050D14D39400EE9401400363B002D34F
:10027200E50E9400E50D94024006750D00750E0022
:07028200D006D0D0D0E0321D
:03001B000203CF0E
:1003CF00C0E0C0D075D000C007AF0F050FEFD394BA
:0D03DF0080400363B002D007D0D0D0E032E0
:0800030075C118D2ADD2C22272
:03002B0002031EAF
:09031E00C0E0C0D075D000C0079A
:1003270030C719AF100510EFD39402400363B00430
:0C033700E510D394044003751000C2C709
:07034300D007D0D0D0E0325A
:1000560075A3A1E4F59C759DF0759EFF759FFF75D0
:10006600A68475A70375A41075A50475A3A2F5FA51
:10007600F5FB75FC3075FD80F5A7F59A759B03F5C4
:10008600A675A3A0F5FE75FF78F59A759B19F59EE2
:10009600F59F75A3A2F5FEF5FFF59EF59F759C806D
:1000A600759D0275A3A375FF20F59EF59FF5A475B2
:1000B600B20243B01053B1EF43B02053B1DF43B0A7
:1000C6008053B17FF5B243B11043B12043B180F5FF
:0B00D600A3759C42759D4243E8102278
:030053000200E1C7
:0900E100C0E0C0D075D000C007DA
:1000EA0075A3A3E59C30E72275A3B075A480E42527
:1000FA000AF50A74013509F50975A300E509F5FF42
:10010A00E50AF5FE439C4063B04075A3A3E59D3024
:10011A00E12F75A3B075A502E4250CF50C74013521
:10012A000BF50B75A300E50BF59BE50CF59A439DC2
:10013A0040AF080508EFD39410400675080063B075
:01014A0008AC
:07014B00D007D0D0D0E03254
:1004390075A3A0BF0C03439C02BF0D03439D027526
:03044900A3E0220B
:10044C0075A3A0BF0C03439C01BF0D03439D017515
:03045C00A3E022F8
:10045F0075A3A0BF0C03439C04BF0D03439D0475FC
:03046F00A3E022E5
:10040700AB0775A3A1BB0C05EDF59C8C9DBB0D053A
:09041700EDF59E8C9F75A3E02217
:09001E0075A3A18FA475A3E022D3
:1004720075A3A0BF0C03439C40BF0D03439D407571
:03048200A3E022D2
:10034A00AB0775A3A0EB70058CFBEDF5FABB0105B5
:10035A008CFDEDF5FCBB02058CFFEDF5FEBB03053C
:09036A008C9BEDF59A75A3E022CD
:1003730075A3A0EF700343A601BF010343A602BF09
:0F038300020343A604BF030343A64075A3E02271
:1003920075A3A0EF700343A701BF010343A702BFE8
:0F03A200020343A704BF030343A74075A3E02250
:10042000AB0775A3A3BB0C05EDF5FA8CFBBB0D0563
:09043000EDF5FC8CFD75A3E02242
:0201AA00A907A3
:1001AC00E4FDFC75A3A0E9700EAFFBEFFEABFA7A91
:1001BC0000E42BFDEA3EFCB9010EAFFDEFFEABFCFB
:1001CC007A00E42BFDEA3EFCB9020EAFFFEFFEAB6A
:1001DC00FE7A00E42BFDEA3EFCB9030EAF9BEFFE6A
:1001EC00AB9A7A00E42BFDEA3EFC75A3E0AE04AFBB
:0101FC0005FD
:0101FD0022DF
:0202BD00A9078F
:1002BF00E4FDFC75A3A3B90C0EAFFBEFFEABFA7A0E
:1002CF0000E42BFDEA3EFCB90D0EAFFDEFFEABFCDB
:0F02DF007A00E42BFDEA3EFC75A3E0AE04AF0508
:0102EE0022ED
:0201FE00A9074F
:10020000E4FDFC75A3A1E9700EAFFBEFFEABFA7A3B
:1002100000E42BFDEA3EFCB9010EAFFDEFFEABFCA6
:100220007A00E42BFDEA3EFCB9020EAFFFEFFEAB15
:10023000FE7A00E42BFDEA3EFCB9030EAF9BEFFE15
:10024000AB9A7A00E42BFDEA3EFC75A3E0AE04AF66
:0102500005A8
:01025100228A
:1002890053AB7FE4F5AFF5AE75AB4075AA8143ABCF
:100299008075A90175B2024380105386EFF5B24308
:1002A900861075B2024380085386F7F5B243860873
:0402B90043E80222F2
:030027008FAC2279
:03002E00AFAD2251
:03003B000202EFCF
:1002EF00C0E075BFA0E5B530E00653B5FE75BFE0C1
:1002FF0075BFA0E5B530E10653B5FD75BFE075BF1D
:0F030F00A0E5B530E20653B5FB75BFE0D0E03294
:00000001FF
