:1000680075100A75110112000E907FB0E04408F077
:10007800907FB4E0443CF0907F15E04406F0907F18
:100088001374FFF0E511907F13B4010574F9F08043
:100098000374FBF0AF10EF3395E0FE1200C2E511D8
:1000A800907F13B4010574FFF0800374FDF0AF1066
:0A00B800EF3395E0FE1200C280CA8B
:03000B00020038B8
:10003800C0E0C0D075D008C28C7812E6FE08E6F59C
:100048008AEEF58CD28C781506E618700106D0D0A9
:03005800D0E032C3
:10000E00C2AFE47814F608F6C28C5389F043890126
:10001E007812767D0876DC18E6FE08E6F58AEEF5AF
:0A002E008CD2B9D2A9D28CD2AF2235
:0B010600C2AF7814E6FE08E6FFD2AF9F
:0101110022CB
:0400C200AD07AC06D4
:1000C600120106AB07AA06120106C3EF9BFFEE9AC2
:0D00D600FED3EF9DEE9C500543870180EAAC
:0100E30022FA
:070003007F017E000200C234
:07005B007F647E000200C279
:0601200012005B02005B0F
:0F00F7001201201201201201201201200201200B
:070112007F327E000200C2F3
:070119007F0A7E000200C214
:030000000200E417
:0500630053CFFD003247
:1000E40074C1F59D75A8C078FFE4F6D8FD75811537
:0300F4000200689F
:00000001FF
