:06097A00F5A07F507EC3D2
:0B098000EF1FAC0670011E4C70F62249
:1009660075A0FF12097CE412097A75A0FF7F507EFC
:04097600C30209802F
:1009170075A0FFE4FDEDFFC3940874809480501820
:10092700E5A025E0F5A0D3EF940074809480400201
:0B09370005A012097C0D80DD75A0FFFB
:010942002292
:1008EA0075A0FFE4FBFAE5A0C313F5A0D3EB9400CF
:1008FA00EA94004006748025A0F5A012097C0BBB7F
:0C090A0000010AEB64084A70DD75A0FFD4
:0109160022BE
:1008610075A0FFE5A025E025E0F5A0E4FBFAE5A0F1
:1008710025E0F5A005A012097C0BBB00010AEB6481
:10088100064A70EA75A0FF12097CE5A01313543FD4
:1008910012097AE4FAFBE5A0C313F5A0748025A040
:1008A10012097A0BBB00010AEB64064A70E875A0D5
:0108B100FF47
:0108B2002223
:100800007DFF75A0FFE4FBFAC374089BF509E49A29
:10081000F508A9A0900000C3E5829509E583950835
:100820005018ED25E0FDD3E5829400E58394004067
:10083000010DED5912097AA380DD0BBB00010AEB13
:1008400064084A70C3ADA0E4FAFBEDC3132480FD35
:1008500042A012097C0BBB00010AEB64084A70EA53
:010860002275
:1008B3007DFF7BFF75A0FFE4FAEAFFC39408748011
:1008C3009480501FEDC313FDEB25E0FBD3EF9400A1
:1008D30074809480400574802DFD0BED5B12097AC2
:0608E3000A80D675A0FF9B
:0108E90022EC
:1009430012096612097C12091712097C1208EA12AD
:10095300097C12086112097C1208001208B31209FB
:030963007C80DDB8
:0300000002098B67
:0C098B00787FE4F6D8FD7581090209436D
:00000001FF
