:0A0C3C00C0F9A4B0999282F88090EC
:040C46000213000095
:0F0C2D00D2B2D2B3D2A8D288D2AAD28AD2AF2260
:020BB0008F08AC
:100BB20078097C007D007BFF7A0C793C7E007F0AFD
:100BC2001208D0C3E508940A74809480500874090E
:090BD2002508F8E6F5807590078E
:010BDB0022F7
:060C1C00F5A07F107E2709
:0B0C2200EF1FAC0670011E4C70F622A4
:100C080075A0FF120C1EE4120C1C75A0FF7F107E4D
:040C180027020C2281
:100BDC0075A0FFE4FDEDFFC3940874809480501859
:100BEC00E5A025E0F5A0D3EF94007480948040023A
:0B0BFC0005A0120C1E0D80DD75A0FF8F
:010C070022CA
:100B830075A0FFE4FBFAE5A0C313F5A0D3EB940033
:100B9300EA94004006748025A0F5A0120C1E0BBB3E
:0C0BA30000010AEB64084A70DD75A0FF39
:010BAF002223
:100A380075A0FFE5A025E025E0F5A0E4FBFAE5A018
:100A480025E0F5A005A0120C1E0BBB00010AEB6403
:100A5800064A70EA75A0FF120C1EE5A01313543F56
:100A6800120C1CE4FAFBE5A0C313F5A0748025A0C2
:100A7800120C1C0BBB00010AEB64064A70E875A057
:010A8800FF6E
:010A8900224A
:1009D7007DFF75A0FFE4FBFAC374089BF509E49A51
:1009E700F508A9A0900000C3E5829509E58395085D
:1009F7005018ED25E0FDD3E5829400E5839400408F
:100A0700010DED59120C1CA380DD0BBB00010AEB95
:100A170064084A70C3ADA0E4FAFBEDC3132480FD5C
:100A270042A0120C1E0BBB00010AEB64084A70EAD5
:010A3700229C
:100B4C007DFF7BFF75A0FFE4FAEAFFC39408748075
:100B5C009480501FEDC313FDEB25E0FBD3EF940005
:100B6C0074809480400574802DFD0BED5B120C1C81
:060B7C000A80D675A0FFFF
:010B82002250
:03000300020AD41A
:100AD400C0E0C0F0C0D075D000C000C004C005C0E4
:100AE40006C007C2AFE5142401FFE43513FE7C0001
:100AF4007D061208F68C138D14D2AFD007D006D021
:0C0B040005D004D000D0D0D0F0D0E032FA
:03001300020B10CD
:100B1000C0E0C0F0C0D075D000C000C004C005C0A7
:100B200006C007C2AFE5142405FFE43513FE7C00C0
:100B30007D061208F68C138D14D2AFD007D006D0E4
:0C0B400005D004D000D0D0D0F0D0E032BE
:100A8A0075A884120C2DE51404FF120BB0E513703F
:100A9A00F5E51414601514601714601914601B141A
:100AAA006020240570E0120C088012120BDC800D05
:100ABA00120B838008120A3880031209D7120C1EFF
:0A0ACA0080C4120B4C120C1E80BCFD
:0300000002094BA7
:0C094B00787FE4F6D8FD75811402099253
:10080000E709F608DFFA8046E709F208DFFA803EDA
:1008100088828C83E709F0A3DFFA8032E309F608C7
:10082000DFFA8078E309F208DFFA807088828C832F
:10083000E309F0A3DFFA806489828A83E0A3F608E3
:10084000DFFA805889828A83E0A3F208DFFA804CBD
:1008500080D280FA80C680D4806980F28033801094
:1008600080A680EA809A80A880DA80E280CA8033FD
:1008700089828A83ECFAE493A3C8C582C8CCC58375
:10088000CCF0A3C8C582C8CCC583CCDFE9DEE78045
:100890000D89828A83E493A3F608DFF9ECFAA9F0C4
:1008A000EDFB2289828A83ECFAE0A3C8C582C8CC1A
:1008B000C583CCF0A3C8C582C8CCC583CCDFEADE33
:1008C000E880DB89828A83E493A3F208DFF980CC95
:1008D00088F0EF60010E4E60C388F0ED2402B4048E
:1008E0000050B9F582EB2402B4040050AF23234535
:0608F00082239008507302
:1008F600BC000BBE0029EF8DF084FFADF022E4CCE6
:10090600F875F008EF2FFFEE33FEEC33FCEE9DECAE
:10091600984005FCEE9DFE0FD5F0E9E4CEFD22EDF4
:10092600F8F5F0EE8420D21CFEADF075F008EF2F3E
:10093600FFED33FD4007985006D5F0F222C398FD2F
:050946000FD5F0EA22CC
:10095700020A8AE493A3F8E493A34003F68001F222
:1009670008DFF48029E493A3F85407240CC8C333A1
:10097700C4540F4420C8834004F456800146F6DF70
:10098700E4800B0102040810204080900C46E47EAE
:10099700019360BCA3FF543F30E509541FFEE49365
:1009A700A360010ECF54C025E060A840B8E493A32C
:1009B700FAE493A3F8E493A3C8C582C8CAC583CA57
:1009C700F0A3C8C582C8CAC583CADFE9DEE780BE0F
:010C4A0000A9
:00000001FF
