:0A0AFC00C0F9A4B0999282F880902E
:080B06000217000002190000B3
:100AE300D2A8D2885389F0438901758C3C758AB0AA
:090AF300C28DD28CD2A9D2AF222F
:100A0D00AE08AF097C007D0A1208F68C0A8D0BAE7C
:100A1D0008AF097C007D0A1208F68E088F09AF0B0E
:020A2D008F0C2C
:100A2F00780D7C007D007BFF7A0A79FC7E007F0ABF
:100A3F001208D0C3E50C940A748094805008740D8A
:060A4F00250CF8E6F5801D
:010A5500227E
:100ABD00E4FDFCE4FBFAC3EB9FEE6480F8EA64808E
:100ACD009850070BBB00010A80EC0DBD00010CED29
:050ADD0064644C70DEB2
:010AE20022F1
:03000B00020A5690
:100A5600C0E0C0D0C28DC28C758C3C758AB0D3E51F
:100A6600189414E517648094804010751700751863
:100A760000051AE51A700C051980080518E51870A6
:0A0A8600020517D28CD0D0D0E03268
:100A9000C295D293D292120AE3851908851A09C227
:100AA00093120A0D7F197E00120ABDD293C29212D0
:0D0AB0000A0D7F197E00120ABDD29280DC73
:0300000002098171
:0C098100787FE4F6D8FD75811A0209C8E1
:10080000E709F608DFFA8046E709F208DFFA803EDA
:1008100088828C83E709F0A3DFFA8032E309F608C7
:10082000DFFA8078E309F208DFFA807088828C832F
:10083000E309F0A3DFFA806489828A83E0A3F608E3
:10084000DFFA805889828A83E0A3F208DFFA804CBD
:1008500080D280FA80C680D4806980F28033801094
:1008600080A680EA809A80A880DA80E280CA8033FD
:1008700089828A83ECFAE493A3C8C582C8CCC58375
:10088000CCF0A3C8C582C8CCC583CCDFE9DEE78045
:100890000D89828A83E493A3F608DFF9ECFAA9F0C4
:1008A000EDFB2289828A83ECFAE0A3C8C582C8CC1A
:1008B000C583CCF0A3C8C582C8CCC583CCDFEADE33
:1008C000E880DB89828A83E493A3F208DFF980CC95
:1008D00088F0EF60010E4E60C388F0ED2402B4048E
:1008E0000050B9F582EB2402B4040050AF23234535
:0608F00082239008507302
:1008F600C2D5EC30E709B2D5E4C39DFDE49CFCEE1D
:1009060030E715B2D5E4C39FFFE49EFE12092CC35F
:10091600E49DFDE49CFC800312092C30D507C3E45A
:060926009FFFE49EFE228B
:10098D00020A90E493A3F8E493A34003F68001F2E6
:10099D0008DFF48029E493A3F85407240CC8C3336B
:1009AD00C4540F4420C8834004F456800146F6DF3A
:1009BD00E4800B0102040810204080900B06E47EB9
:1009CD00019360BCA3FF543F30E509541FFEE4932F
:1009DD00A360010ECF54C025E060A840B8E493A3F6
:1009ED00FAE493A3F8E493A3C8C582C8CAC583CA21
:1009FD00F0A3C8C582C8CAC583CADFE9DEE780BED9
:010B0E0000E6
:10092C00BC000BBE0029EF8DF084FFADF022E4CCAF
:10093C00F875F008EF2FFFEE33FEEC33FCEE9DEC78
:10094C00984005FCEE9DFE0FD5F0E9E4CEFD22EDBE
:10095C00F8F5F0EE8420D21CFEADF075F008EF2F08
:10096C00FFED33FD4007985006D5F0F222C398FDF9
:05097C000FD5F0EA2296
:00000001FF
