:100ADD00C0F9A4B0999282F880904079243019120F
:040AED00027800107B
:040B190002200000B6
:0F0AF100D2B2D2B3D2A8D288D2AAD28AD2AF229E
:100A7100AB057C007D0AAF82AE831208F68E838FB0
:0C0A810082740A2BF8E6F580AF1FAE1E51
:100A8D00E4FDFCE4FBFAC3EB9FEA9E50070BBB00B1
:0F0A9D00010A80F20DBD00010CED64644C70E4A1
:010AAC002227
:04094B008E088F097A
:10094F00780A7C007D007BFF7A0A79DD7E007F0AC2
:10095F001208D078147C007D007BFF7A0A79E77E3D
:10096F00007F0A1208D0850982850883751E0075DD
:10097F001F0AC2937C007D0AAF82AE831208F6ABCA
:10098F0005AA04120A73D293C2927C007D0AAF8229
:10099F00AE831208F6AA04120A71D292C2917C0099
:1009AF007D0AAF82AE831208F6AA04AB057C007DE8
:1009BF000AAF82AE831208F68E838F827414120AE6
:1009CF0084D291C2907C007D0AAF82AE831208F66A
:0509DF00120A71D29024
:0109E40022F0
:03000300020AC628
:100AC600C2AF5389F0438901758CD8758AF0C28DFF
:070AD600D28CD2A9D2AF328D
:03001300020B0ECF
:0B0B0E00C2AFC28DC28CC2A9D2AF32B0
:03000B00020AAD39
:100AAD00C0E0C28DC28C758CD8758AF00521E52108
:090ABD0070020520D28CD0E03259
:0E0B0000C295120AF1AF21AE2012094B80F708
:030000000209E50D
:0C09E500787FE4F6D8FD758121020A2C11
:10080000E709F608DFFA8046E709F208DFFA803EDA
:1008100088828C83E709F0A3DFFA8032E309F608C7
:10082000DFFA8078E309F208DFFA807088828C832F
:10083000E309F0A3DFFA806489828A83E0A3F608E3
:10084000DFFA805889828A83E0A3F208DFFA804CBD
:1008500080D280FA80C680D4806980F28033801094
:1008600080A680EA809A80A880DA80E280CA8033FD
:1008700089828A83ECFAE493A3C8C582C8CCC58375
:10088000CCF0A3C8C582C8CCC583CCDFE9DEE78045
:100890000D89828A83E493A3F608DFF9ECFAA9F0C4
:1008A000EDFB2289828A83ECFAE0A3C8C582C8CC1A
:1008B000C583CCF0A3C8C582C8CCC583CCDFEADE33
:1008C000E880DB89828A83E493A3F208DFF980CC95
:1008D00088F0EF60010E4E60C388F0ED2402B4048E
:1008E0000050B9F582EB2402B4040050AF23234535
:0608F00082239008507302
:1008F600BC000BBE0029EF8DF084FFADF022E4CCE6
:10090600F875F008EF2FFFEE33FEEC33FCEE9DECAE
:10091600984005FCEE9DFE0FD5F0E9E4CEFD22EDF4
:10092600F8F5F0EE8420D21CFEADF075F008EF2F3E
:10093600FFED33FD4007985006D5F0F222C398FD2F
:050946000FD5F0EA22CC
:1009F100020B00E493A3F8E493A34003F68001F211
:100A010008DFF48029E493A3F85407240CC8C33306
:100A1100C4540F4420C8834004F456800146F6DFD5
:100A2100E4800B0102040810204080900B19E47E41
:100A3100019360BCA3FF543F30E509541FFEE493CA
:100A4100A360010ECF54C025E060A840B8E493A391
:100A5100FAE493A3F8E493A3C8C582C8CAC583CABC
:100A6100F0A3C8C582C8CAC583CADFE9DEE780BE74
:010B1D0000D7
:00000001FF
