:100A05000108FF0A0BC0F9A4B0999282F880900200
:070A150015000002090000BA
:0F0A3400D2B2D2B3D2A8D288D2AAD28AD2AF225B
:1009DF007C007D0AAF03AE0212088CAA06AB077427
:0B09EF000B2582F8E6F580AF18AE176C
:0B09FA00EF1FAC0670011E4C70F622CF
:10097700AB07AA06751713751888D290D291C29340
:100987007C007D0A12088C8D828C831209DFD2933A
:10099700C2927C007D0AAF03AE0212088C8D8212D0
:0409A70009DFD29200
:0109AB002229
:03000300020A1DD1
:100A1D00C2AF5389F0438901758C3C758AB0C28D84
:070A2D00D28CD2A9D2AF3236
:03001300020A439B
:0D0A4300C2AFC295C28DC28CC2A9D2AF3223
:03000B000208E107
:1008E100C0E0C0D0C28DC28C758C3C758AB0D3E596
:1008F1000A940FE509648094804027750900750A00
:1009010000D3E5169400E51564809480400AE5164D
:100911001516701615158012E5164515700CD29531
:100921008008050AE50A70020509D28CD0D0D0E012
:010931003293
:1009AC00E4FDE5B05430643060237F0A7E00120908
:1009BC00FAE5B0543065086017E5B05430F50820FE
:1009CC00B4047D03800A20B5077D048003750830CC
:0209DC00AF0565
:0109DE0022F6
:10093200C295120A34AF16AE151209771209ACEF3E
:1009420024FC601A0470EEC3E5169463E515648016
:10095200948050E10516E51670DB051580D7D3E5C6
:10096200169400E5156480948040CAE51615167049
:05097200C4151580C052
:03000000020800F3
:0C080000787FE4F6D8FD758118020847E7
:10088C00BC000BBE0029EF8DF084FFADF022E4CC50
:10089C00F875F008EF2FFFEE33FEEC33FCEE9DEC19
:1008AC00984005FCEE9DFE0FD5F0E9E4CEFD22ED5F
:1008BC00F8F5F0EE8420D21CFEADF075F008EF2FA9
:1008CC00FFED33FD4007985006D5F0F222C398FD9A
:0508DC000FD5F0EA2237
:10080C00020932E493A3F8E493A34003F68001F2C7
:10081C0008DFF48029E493A3F85407240CC8C333ED
:10082C00C4540F4420C8834004F456800146F6DFBC
:10083C00E4800B0102040810204080900A05E47E3D
:10084C00019360BCA3FF543F30E509541FFEE493B1
:10085C00A360010ECF54C025E060A840B8E493A378
:10086C00FAE493A3F8E493A3C8C582C8CAC583CAA3
:10087C00F0A3C8C582C8CAC583CADFE9DEE780BE5B
:010A1C0000D9
:00000001FF
