:10054900444B3332303020666F7220755053440A61
:100559000050574D20746F204144432044454D4F6E
:100569000A000A414443204368616E6E656C303D60
:050579005858200A00A3
:06057E008B108A118912A6
:10058400E4FFEF7C002512F9EC3511CDE9CDF51629
:100594008D178D82F583E493FEAB13EF2515F9ECEB
:0B05A4003514FAEE12044F0FBF14D7FD
:0105AF002229
:10037B0075C83443870C7EFF74C6F5CA8ECB75984F
:10038B0050759A50D2AF1206DA9002E2E04480F038
:10039B001205B0E4FF1205D77B8F7D707C17E4FF4D
:1003AB001205101204B67BFF7A0579491202381236
:1003BB0006D47BFF7A05795A1202381206CD7513D3
:1003CB000075140075152B7BFF7A05796B12057E72
:1003DB0090022274F0F09002207408F0E4783FF65B
:1003EB0020AC1030980DE59964A56004C298800389
:1003FB001201F6783FE6FDE4FF12063DE4FF12061C
:10040B0099782AEFF61206837839EFF6782AE6FF09
:10041B0012000E783AEFF67B007A00792B12023835
:0B042B001206CD783F741026F680B555
:0300000002065D98
:10065D0074FEF595F5B1F5B2F5B3F5B4F5E1745554
:0E066D00F5AE78FFE4F6D8FD75814102037BFF
:1004B6001200039003007430F012000390030074DE
:1004C60030F01200039003007430F0120003900322
:1004D600007438F01200031206B9900300740CF091
:1004E6001206B99003007401F01206B99003007465
:1004F60002F01206B99003007406F0752780120602
:0A050600B9900300E527F00206B9E2
:0506B400900302EFF0CD
:0806B900900301E020E7F922A3
:060238008B108A118912EF
:10023E00752300752400752513AB10AA11A912128F
:10024E000436700302037A1206B9AB10AA11A91272
:10025E00120436FFB40D0D74012512F512E435119A
:10026E00F5118012EFB40A1974012512F512E43556
:10027E0011F5116327405327C0900300E527F08046
:10028E00B8EF64256003020362042512F512E4350B
:10029E0011F511AB10FAA912120436FDB4642574CF
:1002AE00012512F512E43511F511AB230525E525CF
:1002BE00AA247002052414F9120436F522540F24D0
:1002CE0030020373EDB4781974012512F512E4357A
:1002DE0011F511AB230525E525AA247051052480BF
:1002EE004DAB10AA11A9121204366477705304256F
:1002FE0012F512E43511F511AB23E5251525AA24C7
:10030E0070021524F9120436F5220525E525AA24D6
:10031E007002052412067B1206B4AF2212000E12D2
:10032E0006B4AB230525E525AA2470020524120682
:10033E007B1206B4AF2212000E900302EFF00202FF
:10034E0047AB100512E512AA117002051114F9122D
:10035E0004368011AB100512E512AA1170020511B8
:0C036E0014F9120436900302F00202475A
:01037A002260
:10000E0053070FEFD39409EF50042430FF22243707
:02001E00FF22BF
:08067B0014F9120436F522FF08
:100683005307F0EFC4540FFFD39409EF5004243001
:06069300FF222437FF22C4
:03000B0002061DCD
:10061D00C0E0C0D075D008C28CE529F58AE528F573
:10062D008CD28C784106E618700106D0D0D0E0321D
:1005B000C2AFE47840F608F6C28C5389F043890153
:1005C00075288A7529E1E529F58AE528F58CD2B9DF
:0705D000D2A9D28CD2AF22A8
:0B06C100C2AF7840E6FE08E6FFD2AFB3
:0106CC00220B
:0405FB00AD07AC0696
:1005FF001206C1AB07AA061206C1C3EF9BFFEE9A04
:0D060F00FED3EF9DEE9C500543870180EA6D
:01061C0022BB
:070003007F017E000205FBF6
:0706CD007F647E000205FBC3
:0606D4001206CD0206CD66
:100699005397D1EF25E025E0FE42974397220000CA
:0A06A900E59730E0FB5397DFAF96B2
:0106B3002224
:1005D700EF14600F14601114601324037012439119
:1005E70010800D4391208008439140800343918000
:0405F70075950322D1
:10063D00EF14600E14600F1460102403700E8DA261
:10064D00800A8DA380068DA480028DA543A1202252
:10051000EB548FFEE5A154704EF5A17408A80708AE
:100520008002C333D8FCF5947E467F50120461AD3F
:1005300007AC06ED4C6005ED1D70011CEDFBF5B13F
:08054000AF048FB28BB38FB43E
:010548002290
:0406DA0053A1DF2227
:03002300020026B2
:10002600C0D0C0E075D000C000C00120984F78FF56
:100036008600B8FF2974F73099FDC299F599D00169
:100046007805D0E0118ED8FAE9118E115CC0E01166
:100056005CC0E0115CF83098FDE599C29822E58114
:1000660024FCF9800C0819E66708097004E6676045
:10007600C4B8FEF1D001D000D0E0D0D032E599C2AC
:1000860098B4A5F0D29980AD3099FDC299F5992220
:100096008882F58301518881F5F00151F58001517F
:1000A600F5B00151E581C083C082C08EC0F0C0E0CA
:1000B600C0E0013DE589C088C087C086C085C08490
:1000C600C080013DE590C08FC08EC08DC08CC08BB6
:1000D600C08A013DE597C096C095C094C093C09272
:1000E600C091013DE59EC09DC09CC09BC09AC09931
:1000F600C098013DE5A5C0A4C0A3C0A2C0A1C0A0F0
:10010600C09F013DE5ACC0ABC0AAC0A9C0A8C0A7AE
:10011600C0A6013DE5B3C0B2C0B1C0B0C0AFC0AE6D
:10012600C0AD013DE5BAC0B9C0B8C0B7C0B6C0B52C
:10013600C0B4013DE5C1C0C0C0BFC0BEC0BDC0BCEB
:10014600C0BB013DE5C8C0C7C0C6C0C5C0C4C0C3AA
:02015600C0C225
:10015800013DE5CFC0CEC0CDC0CCC0CBC0CAC0C960
:10016800013DE5D7C0D6C0D5C0D4C0D3C0D2C0D118
:10017800013DE5DEC0DDC0DCC0DBC0DAC0D9C0D8D7
:10018800013DE5E6C0E5C0E4C0E3C0E2C0E1C0DF90
:10019800013DE5EDC0ECC0EBC0EAC0E9C0E8C0E74E
:1001A800013DE5F5C0F4C0F3C0F2C0F1C0EFC0EE08
:1001B800013DE5FCC0FBC0FAC0F9C0F8C0F7C0F6C5
:1001C800013DE5FFC0FEC0FDC0E0C0E0C0E0C0E00A
:1001D800013DC0E0115CC0E0115CC0E0115CF911A8
:1001E8005CC0E0C00078FFE67002C299017C78FF2D
:0601F80076FFD2AC2200EC
:10043600BB010689828A83E0225002E722BBFE02C4
:09044600E32289828A83E49322F7
:10044F00BB010689828A83F0225002F722BBFE018C
:02045F00F32286
:10046100BC000BBE0029EF8DF084FFADF022E4CC7F
:10047100F875F008EF2FFFEE33FEEC33FCEE9DEC48
:10048100984005FCEE9DFE0FD5F0E9E4CEFD22ED8E
:10049100F8F5F0EE8420D21CFEADF075F008EF2FD8
:1004A100FFED33FD4007985006D5F0F222C398FDC9
:0504B1000FD5F0EA2266
:1001FE00C582F9115CC5832231FEC0E0E0A3118EE9
:10020E00D8FA8982D083015131FEC0E0E493A31164
:10021E008ED8F980EDF9E709118ED8FA015131FE29
:0A022E00C0E0E8F080DCF6015100AA
:00000001FF
