:100B3B00C0F9A4B0999282F88090407924301912B0
:040B4B00027800101C
:040B6100022400006A
:100AFA00E4FDFCE4FBFAC3EB9FEE6480F8EA648051
:100B0A009850070BBB00010A80EC0DBD00010CEDEB
:050B1A0064644C70DE74
:010B1F0022B3
:020AA8008F0EAF
:100AAA00780F7C007D007BFF7A0B793B7E007F0A02
:100ABA001208D0C3E50E940A748094805008740F0B
:060ACA00250EF8E6F580A0
:010AD0002203
:020AD1008F197B
:100AD300781A7C007D007BFF7A0B79457E007F0AC4
:100AE3001208D0C3E519940A748094805008741ACC
:060AF3002519F8E6F5806C
:010AF90022DA
:03000B00020B4F96
:0D0B4F00C28DC28C758C3C758AB0D28C3280
:03000300020A5E90
:100A5E00C0E0C0F0C083C082C0D075D000C000C05E
:100A6E0001C002C003C004C005C006C007C2AF0566
:100A7E0025E52570020524FFAE24120A0DD2AFD053
:100A8E0007D006D005D004D003D002D001D000D0BC
:0A0A9E00D0D082D083D0F0D0E03237
:040A0D008E088F09B7
:100A1100750C08E4F50AF50BAE08AF097C007D0AF8
:100A21001208F68D0DAE08AF097C007D0A1208F69A
:100A31008E088F09850CA0AF0D120AA87F057E00D4
:100A4100120AFAE50CC313F50C050BE50B70020550
:0C0A51000AC39404E50A6480948040BC51
:010A5D002276
:100B2000D2B2D2A8D2885389F0438901758C3C7522
:0B0B30008AB0C28DD28CD2A9D2AF22B5
:050B5C00120B2080FED9
:0300000002098171
:0C098100787FE4F6D8FD7581250209C8D6
:10080000E709F608DFFA8046E709F208DFFA803EDA
:1008100088828C83E709F0A3DFFA8032E309F608C7
:10082000DFFA8078E309F208DFFA807088828C832F
:10083000E309F0A3DFFA806489828A83E0A3F608E3
:10084000DFFA805889828A83E0A3F208DFFA804CBD
:1008500080D280FA80C680D4806980F28033801094
:1008600080A680EA809A80A880DA80E280CA8033FD
:1008700089828A83ECFAE493A3C8C582C8CCC58375
:10088000CCF0A3C8C582C8CCC583CCDFE9DEE78045
:100890000D89828A83E493A3F608DFF9ECFAA9F0C4
:1008A000EDFB2289828A83ECFAE0A3C8C582C8CC1A
:1008B000C583CCF0A3C8C582C8CCC583CCDFEADE33
:1008C000E880DB89828A83E493A3F208DFF980CC95
:1008D00088F0EF60010E4E60C388F0ED2402B4048E
:1008E0000050B9F582EB2402B4040050AF23234535
:0608F00082239008507302
:1008F600C2D5EC30E709B2D5E4C39DFDE49CFCEE1D
:1009060030E715B2D5E4C39FFFE49EFE12092CC35F
:10091600E49DFDE49CFC800312092C30D507C3E45A
:060926009FFFE49EFE228B
:10098D00020B5CE493A3F8E493A34003F68001F219
:10099D0008DFF48029E493A3F85407240CC8C3336B
:1009AD00C4540F4420C8834004F456800146F6DF3A
:1009BD00E4800B0102040810204080900B61E47E5E
:1009CD00019360BCA3FF543F30E509541FFEE4932F
:1009DD00A360010ECF54C025E060A840B8E493A3F6
:1009ED00FAE493A3F8E493A3C8C582C8CAC583CA21
:1009FD00F0A3C8C582C8CAC583CADFE9DEE780BED9
:010B6500008F
:10092C00BC000BBE0029EF8DF084FFADF022E4CCAF
:10093C00F875F008EF2FFFEE33FEEC33FCEE9DEC78
:10094C00984005FCEE9DFE0FD5F0E9E4CEFD22EDBE
:10095C00F8F5F0EE8420D21CFEADF075F008EF2F08
:10096C00FFED33FD4007985006D5F0F222C398FDF9
:05097C000FD5F0EA2296
:00000001FF
