:03000000020046B5
:0500630053CFFD003247
:1000460074C1F59D75A8C078FFE4F6D8FD758114D6
:0300560002000E97
:03000B000200925E
:10009200C0E0C0D075D008C28C7811E6FE08E6F543
:1000A2008AEEF58CD28C781406E618700106D0D050
:0300B200D0E03269
:10006800C2AFE47813F608F6C28C5389F0438901CD
:100078007811767D0876DC18E6FE08E6F58AEEF556
:0A0088008CD2B9D2A9D28CD2AF22DB
:0B00E600C2AF7813E6FE08E6FFD2AFC1
:0100F10022EC
:0400B500AD07AC06E1
:1000B9001200E6AB07AA061200E6C3EF9BFFEE9A11
:0D00C900FED3EF9DEE9C500543870180EAB9
:0100D6002207
:070003007F017E000200B541
:070059007F647E000200B588
:0601000012005902005933
:0F00D700120100120100120100120100020100CB
:0700F2007F327E000200B521
:0700F9007F0A7E000200B542
:10000E0075100A120068907F15E04402F0907F137D
:10001E00E04402F0907F13E054FDF0AF10EF339503
:10002E00E0FE1200B5907F13E04402F0AF10EF3304
:08003E0095E0FE1200B580DC24
:00000001FF
