:100CEC00454550524F4D20456D756C6174696F6E62
:100CFC000A0064656D6F206F6E207550534433335A
:100D0C0030300A00466C617368206E6F7420696E17
:100D1C0069740A00666F7220454550524F4D20454C
:100D2C006D756C2E0A00466F726D617474696E6716
:100D3C0020666C6173680A00496C6C6567616C2095
:100D4C007265636F7264730A007265647563652003
:100D5C006E756D6265720A00466F726D6174204625
:100D6C0061696C65640A0052657365740A005365A9
:100D7C0063746F722045726173650A004572726FFD
:100D8C00722D52657365740A0050726576696F75C1
:100D9C00736C7920696E69740A0052656164696EBE
:100DAC0067205265632320300A00636F6E74656E92
:100DBC0074732E2E2E0A005244204572726F7220CC
:100DCC003D25780A0052656323203020636F6E74D2
:100DDC0061696E730A007468652076616C75653A9A
:100DEC0020307825780A004E6F7720676F696E6720
:100DFC0020746F202020200A0075706461746520B7
:100E0C0052656323203020772F0A00696E63726568
:100E1C006D656E74696E672076616C0A0065766527
:100E2C0072792032207365636F6E64732E0A0057DB
:100E3C0052204572726F72203D25780A00777269D4
:100E4C0074696E673A20307825780A0057726F748F
:100E5C0065205265632320300A0077697468207618
:100E6C00616C75653A20307825780A0052656164AA
:100E7C00202620436F6D706172652E0A004D6973D8
:0B0E8C00636F6D7061726564210A00E5
:100AAB00907FE2E04480F0121FCF121FF97BFF7A98
:100ABB000C79EC1213517BFF7A0C79FE1213511245
:100ACB00213C9000027401F0120068900001EFF0DD
:100ADB007003020B7A121F457BFF7A0D79101213EC
:100AEB00517BFF7A0D792012135112213C121F45B5
:100AFB007BFF7A0D79321213517BFF7A0D7920121D
:100B0B00135112213CE4900002F07F01FE121ED51E
:100B1B00900001EFF0247F602224FA6038240570E6
:100B2B004E121F457BFF7A0D79441213517BFF7ACE
:100B3B000D795512135112213C80FE121F457BFF7C
:100B4B007A0D79641213517BFF7A0D79731213515D
:100B5B0012212780FE121F457BFF7A0D797A121323
:100B6B00517BFF7A0D798812135112212780FE9049
:100B7B000002E064016003020C09121F457BFF7A3F
:100B8B000D79951213517BFF7A0D792012135112A7
:100B9B00213C121F457BFF7A0D79A61213517BFF67
:100BAB007A0D79B612135112213C7B017A0079042C
:100BBB00E4FFFE120E97900001EFF06016121F4536
:100BCB007BFF7A0D79C3900001E0900008F01213BF
:100BDB005180FE121F457BFF7A0D79D11213517B89
:100BEB00FF7A0D79E2900004E0900008F0121351A7
:100BFB0012213C12213C900004E004F08001E490AF
:100C0B000000F0121F457BFF7A0D79F31213517B15
:100C1B00FF7A0E790512135112213C121F457BFFEF
:100C2B007A0E79171213517BFF7A0E7929020CCCAD
:100C3B00900000E0FF04F0900003EFF07C007D03D8
:100C4B00E4FFFE12000E900001EFF06027121F452B
:100C5B007BFF7A0E793B900001E0900008F01213B5
:100C6B00517BFF7A0E7949900003E0900008F01257
:100C7B00135180FE7B017A007904E4FFFE120E977C
:100C8B00900001EFF06016121F457BFF7A0D79C3C0
:100C9B00900001E0900008F012135180FE900003C9
:100CAB00E0FFA3E0B50723121F457BFF7A0E7958AF
:100CBB001213517BFF7A0E7966900004E0900008C6
:100CCB00F012135112213C020C3B121F457BFF7A91
:100CDB000E79781213517BFF7A0E7989121351809A
:010CEB00FE0A
:041ED500AB07AA06A7
:101ED9007C007D83121B3FD3EF9400EE94104003E6
:101EE9007F8222AE02AF03AD07AC06E4FF121D5A92
:101EF900EF60037F81227F011211D4EF60037F8796
:031F0900227F0034
:011F0C0022B2
:1000680090009A7401F0A37400F0A37405F0900056
:10007800A17480F0A3E4F0900096F0A3F09000A1A2
:10008800121CBB90009AE0FBA3E0FAA3E0F99000F1
:1000980096E0FCA3E0F5828C83EF121B1D9000977D
:1000A800E004F07006900096E004F0C3900097E03A
:1000B8009407900096E0940040C390009A7401F071
:1000C800A37400F0A3740CF09000A174A0F0A3E452
:1000D800F0900096F0A3F09000A1121CBB90009A3B
:1000E800E0FBA3E0FAA3E0F9900096E0FCA3E0F5BA
:1000F800828C83EF121B1D900097E004F07006902D
:100108000096E004F0C3900097E09407900096E012
:10011800940040C3900007E0FF900006E06FF46091
:1001280011E4FF1211D4EF60037F87229000057459
:10013800FFF090000EE0FF90000DE06FF460117F7B
:10014800011211D4EF60037F872290000C74FFF036
:10015800900008E0FEA3E0FFF47002EEF460028075
:100168000F90000FE0FEA3E0FFF47002EEF4600AC7
:1001780090009DEEF0A3EFF080037F8222900005AF
:10018800E02408700302029524FC7003020268242C
:10019800FE603214600302032F90000CE0B4FC0EE2
:1001A800E4FF1211D4EF70030203467F87227F0118
:1001B8001211D4EF60037F8722121D50EF60037F76
:1001C80081227F8A2290000CE0B4FC0EE4FF121119
:1001D800D4EF70030203467F872290000CE064F896
:1001E80070677F011211D4EF60037F8722900005AA
:1001F80074FCF090009A7401F0A37400F0A37405E5
:10020800F09000A17480F0A3E4F0900096F0A3F0C1
:10021800900096E0FCA3E0FDC39407EC9400400333
:100228000203469000A1E475F001121B6790009A42
:100238001214DAEF60037F8822900097E004F070D0
:10024800CF900096E004F080C77F011211D4EF60D0
:10025800037F8722121D50EF60037F81227F8A224D
:1002680090000CE064FC70177F011211D4EF60035A
:100278007F8722121D50EF60037F81227F8A227FB1
:10028800011211D4EF70030203467F872290000CFD
:10029800E0B4FC0EE4FF1211D4EF70030203467FB2
:1002A800872290000CE064FE7066FF1211D4EF60A4
:1002B800037F872290000C74FCF090009A7401F080
:1002C800A37400F0A3740CF09000A174A0F0A3E450
:1002D800F0900096F0A3F0900096E0FCA3E0FDC338
:1002E8009407EC940050579000A1E475F001121B9C
:1002F80067AFF0FE90009A1214DDEF60037F88224A
:10030800900097E004F070CF900096E004F080C76A
:100318007F011211D4EF60037F8722121D50EF6016
:10032800037F81227F8A227F011211D4EF60037F2D
:100338008722121D50EF60037F81227F8A22E4907A
:100348000096F0A3F090009DE0FCA3E0FD900096DD
:10035800E0FEA3E0FFC39DEE9C400302047B7B010B
:100368007A00791312103890009FEEF0A3EFF09006
:100378000013E064FC600302046A7F0112194AEF6B
:10038800B485037F8522EFC43354E0FEE42400FFE4
:10039800EE34809000A1F0A3EFF012160F9000A3A6
:1003A800EEF0A3EFF064804E70037F80229000137C
:1003B80074FEF004900094F0A3F090009A7401F099
:1003C800A37400F0A37413F0E4900098F0A3F090E5
:1003D8000098E0FCA3E0FDC39483EC9400502990BE
:1003E80000A3E475F001121B67AFF0FE90009A12AB
:1003F80014DDEF60037F8822900099E004F070CF4D
:10040800900098E004F080C790001374F8F0900012
:10041800A4E0247DFE9000A3E034FF900094F0A3B4
:10042800CEF0E4900098F0A3F0900098E0FCA3E0F0
:10043800FDC39483EC9400502990009FE475F0016B
:10044800121B67AFF0FE90009A1214DDEF60037F75
:100458008822900099E004F070CF900098E004F0B2
:1004680080C7900097E004F07006900096E004F0D2
:0504780002034D7F00AE
:01047D00225C
:0E000E00900005EEF0A3EFF0A3ECF0A3EDF0F0
:10001C0012047EA907E96480703AFFFE900007E0A5
:10002C00FCA3E02FF582EC3EF583E0FD74092FF57F
:10003C0082E43400F583EDF00FBF00010EEF648015
:10004C004E70D9900005E0FEA3E0FF7C007D091204
:06005C000846A907AF01F0
:01006200227B
:030E970090013295
:100E9A0012193AEFB485037F8522900134A3E0FA50
:100EAA00A3E0FD9001C6EAF0A3EDF0EFC43354E0ED
:100EBA00FEE42407FBEE3480FA900132E0FEA3E060
:100ECA00FF7C007D83121B3FEF2BFFEE3AFE900161
:100EDA00CAF0A3EFF09001C37401F0A37401F0A368
:100EEA00743EF09001C8EEF0A3EFF0E49001C1F077
:100EFA00A3F09001C8121CBB9001C3E0FBA3E0FA67
:100F0A00A3E0F99001C1E0FCA3E0F5828C83EF1223
:100F1A001B1D9001C2E004F070069001C1E004F0CC
:100F2A00C39001C2E094839001C1E0940040C39051
:100F3A0001BFE0FEA3E0F47002EEF47003020FD3E7
:100F4A009001CAE0FFA3E09001C8CFF0A3EFF090B0
:100F5A0001C37401F0A37401F0A3743EF09001C8B8
:100F6A00E0FFA3E09001CCCFF0A3EFF0E49001C141
:100F7A00F0A3F09001C8121CBB9001C3E0FBA3E0F0
:100F8A00FAA3E0F99001C1E0FCA3E0F5828C83EFBB
:100F9A00121B1D9001C2E004F070069001C1E0042A
:100FAA00F0C39001C2E094839001C1E0940040C371
:100FBA009001BFE0FEA3E0FF9001C8EEF0A3EFF0BE
:100FCA00F47002EEF47088800D9001CAE0FFA3E08D
:100FDA00A3CFF0A3EFF090013EE0B4FF037FFF221E
:100FEA00E49001C1F0A3F09001C1E0FEA3E0FFC3C9
:100FFA009480EE94005034743F2FF582E43401F566
:10100A0083E0FF9001C1E0FCA3E0FD9001C6E0FA95
:10101A00A3E02DF582EA3CF583EFF09001C2E004EB
:0D102A00F070069001C1E004F080BC7F0072
:011037002296
:0E047E00900132EEF0A3EFF0A3ECF0A3EDF04E
:10048C007F0112194AEFB485037F8522900134E075
:10049C00FDA3E09001CDCDF0A3EDF0EFC43354E01B
:1004AC00FEE42407FBEE3480FA900132E0FEA3E078
:1004BC00FF7C007D83121B3FEF2BFFEE3AFE900179
:1004CC00C4F0A3EFF09001CA7401F0A37401F0A37F
:1004DC00743DF09001C8EEF0A3EFF0E49001C0F091
:1004EC00A3F0121CB89001CAE0FBA3E0FAA3E0F958
:1004FC009001C0E0FCA3E0F5828C83EF121B1D90F1
:10050C0001C1E004F070069001C0E004F0C390015A
:10051C00C1E094839001C0E0940040C690013DE09E
:10052C00F460030205CF74FEF0049001BEF0A3F05A
:10053C00E4A3F0A3F09001C0E0FEA3E0FF9001CD96
:10054C00E0FCA3E02FF582EC3EF583E0FD743E2F3A
:10055C00F582E43401F583EDF09001C1E004F07014
:10056C00069001C0E004F09001C0E07004A3E064C8
:10057C008070C29001CA7401F0A37401F0A3743DA1
:10058C00F09001C4E0FFA3E09001C8CFF0A3EFF01E
:10059C00E49001C0F0A3F09001C0E0FCA3E0FDC327
:1005AC009483EC940050191214CDEF60037F8822D1
:1005BC009001C1E004F070069001C0E004F080D717
:1005CC007F00229001C4E0FFA3E09001C8CFF0A30C
:1005DC00EFF09001CA7401F0A37401F0A3743DF024
:1005EC00E49001C0F0A3F0121CB89001CAE0FBA388
:1005FC00E0FAA3E0F99001C0E0FCA3E0F5828C8363
:10060C00EF121B1D9001C1E004F070069001C0E0D8
:10061C0004F0C39001C1E094839001C0E0940040C9
:10062C00C690013DE0FFB4F80F9001BEE0FDA3E0E1
:10063C009001C8CDF0A3EDF0EF64F860959001C97E
:10064C00E0247DFE9001C8E034FF9001C2F0A3CEFF
:10065C00F012160F9001C6EEF0A3EFF064804E700E
:10066C00037F80229001C2E0FFA3E09001C8CFF08D
:10067C00A3EFF0E49001C0F0A3F0121CB89001CAF3
:10068C00E0FBA3E0FAA3E0F99001C0E0FCA3E0F5E5
:10069C00828C83EF121B1D9001C1E004F070069058
:1006AC0001C0E004F0C39001C1E094839001C0E06C
:1006BC00940040C690013D74FCF09001C2E0FFA391
:1006CC00E09001C8CFF0A3EFF0E49001C0F0A3F0EC
:1006DC009001C0E0FCA3E0FDC39483EC940050199E
:1006EC001214CDEF60037F88229001C1E004F070FA
:1006FC00069001C0E004F080D79001C6E0FFA3E0B3
:10070C00A3CFF0A3EFF090013D74FEF0049001BE76
:10071C00F0A3F0E4A3F0A3F09001C0E0FEA3E0FF8F
:10072C009001CDE0FCA3E02FF582EC3EF583E0FDDB
:10073C00743E2FF582E43401F583EDF09001C1E0B5
:10074C0004F070069001C0E004F09001C0E0700469
:10075C00A3E0648070C29001C6E0FFA3E0A3CFF0D9
:10076C00A3EFF0E49001C0F0A3F09001C0E0FCA373
:10077C00E0FDC39483EC940050191214CDEF600388
:10078C007F88229001C1E004F070069001C0E00463
:10079C00F080D79001C2E0FFA3E09001C8CFF0A396
:1007AC00EFF0E49001C0F0A3F0121CB89001CAE085
:1007BC00FBA3E0FAA3E0F99001C0E0FCA3E0F58212
:1007CC008C83EF121B1D9001C1E004F070069001A8
:1007DC00C0E004F0C39001C1E094839001C0E094A8
:1007EC000040C690013D74F8F09001C6E0FFA3E014
:1007FC009001BECFF0A3EFF09001C2E0FFA3E09018
:10080C0001C8CFF0A3EFF0E49001C0F0A3F0900189
:10081C00C0E0FCA3E0FDC39483EC940050191214C7
:10082C00CDEF60037F88229001C1E004F070069048
:09083C0001C0E004F080D77F0048
:010845002290
:1014CD009001C8E475F001121B679001CAAFF0FEE0
:1014DD00E0FBA3E0FAA3E0F98D828C83121AF0FDF4
:0B14ED009001CFEEF0A3EFF0A3EDF0B4
:1014F800E49001D5F0A3F0900299E060037F8B227D
:101508009002997401F0E49001D3F0A3F0FF121E49
:1015180052EF6011E4FF121F79EF60037F8722907A
:1015280001D57401F07F01121E52EF60117F011284
:101538001F79EF60037F87229001D67401F0C2AF54
:1015480090855574AAF0908AAA7455F090855574C0
:10155800A0F09001D1E0FF9001CFE0FCA3E0F5827C
:101568008C83EFF0D2AF9001CFE0FEA3E0F5828E3E
:1015780083E0FFFE5420FDEE5480FE9001D1E0543C
:1015880080FCB506059001D38007EDB420069001D4
:10159800D47401F09001D3E07004A3E060C8900116
:1015A800D4E0B40114AE07EE5480B504069001D31C
:1015B8007401F090855574F0F09001CFE0FEA3E03F
:1015C800F5828E83E09001D2F09001D5E0600BE4C3
:1015D800FF121FA4EF60037F87229001D6E0600B03
:1015E8007F01121FA4EF60037F8722E4900299F025
:1015F8009001D1E0FFA3E0B50703D38001C3400405
:061608007F0180027F005B
:01160E0022B9
:031038009000A580
:10103B0012193AEFB485057E007F85229000A7A395
:10104B00E0FAA3E0FD900139EAF0A3EDF0EFC43331
:10105B0054E0FEE42407FBEE3480FA9000A5E0FE9A
:10106B00A3E0FF7C007D83121B3FEF2BFFEE3AFECC
:10107B0090013DF0A3EFF09001367401F0A37400E2
:10108B00F0A374B1F090013BEEF0A3EFF0E490010C
:10109B0034F0A3F090013B121CBB900136E0FBA394
:1010AB00E0FAA3E0F9900134E0FCA3E0F5828C8335
:1010BB00EF121B1D900135E004F07006900134E037
:1010CB0004F0C3900135E09483900134E094004028
:1010DB00C3900132E0FEA3E0F47002EEF470030261
:1010EB00117690013DE0FFA3E090013BCFF0A3EF21
:1010FB00F09001367401F0A37400F0A374B1F0907A
:10110B00013BE0FFA3E090013FCFF0A3EFF0E490B1
:10111B000134F0A3F090013B121CBB900136E0FBB5
:10112B00A3E0FAA3E0F9900134E0FCA3E0F5828C94
:10113B0083EF121B1D900135E004F0700690013413
:10114B00E004F0C3900135E09483900134E0940007
:10115B0040C3900132E0FEA3E0FF90013BEEF0A311
:10116B00EFF0F47002EEF47088800D90013DE0FF1B
:10117B00A3E0A3CFF0A3EFF0E4900134F0A3F09041
:10118B00013F121CBB900134E0FCA3E0FD90013940
:10119B00E0FAA3E02DF582EA3CF583EFF090013500
:1011AB00E004F07006900134E004F0C3900135E0E8
:1011BB009483900134E0940040C5900140E0247D7D
:0811CB00FF90013FE034FFFE3C
:0111D30022F9
:0D1CB8009001C8E475F001121B67AFF0FE4B
:081CC500900276EEF0A3EFF0AF
:101CCD00E4A3F0A3F090029AE060037F8B229002D0
:101CDD009A7401F0E4FF121E52EF6011E4FF121F1F
:101CED0079EF60037F87229002787401F07F0112F3
:101CFD001E52EF60117F01121F79EF60037F872263
:101D0D009002797401F0900276E0FEA3E0F5828EE8
:101D1D0083E090027AF0900278E0600BE4FF121FEE
:101D2D00A4EF60037F8722900279E0600B7F0112A0
:101D3D001FA4EF60037F8722E490029AF090027A4D
:021D4D00E0FFB5
:011D4F002271
:1011D400E4FCFBEF14606914700302129A147003A8
:1011E4000212EC2403600302134490855574AAF0A0
:1011F400908AAA7455F09085557480F074AAF09082
:101204008AAA7455F09080007430F0908000E0FE5B
:101214005420FDEE5480FEB480047C018006EDB4BD
:1012240020027B01EC7003EB60E1EB6401600302DC
:101234001347908000E05480B480027C0102133C88
:1012440090A55574AAF090AAAA7455F090A5557467
:1012540080F074AAF090AAAA7455F090A00074309B
:10126400F090A000E0FE5420FDEE5480FEB4800413
:101274007C018006EDB420027B01EC7003EB60E19D
:10128400EB6401600302134790A000E05480B48033
:10129400027C0102133C90C55574AAF090CAAA744A
:1012A40055F090C5557480F074AAF090CAAA74558C
:1012B400F090C0007430F090C000E0FE5420FDEEC9
:1012C4005480FEB480047C018006EDB420027B01CE
:1012D400EC7003EB60E1EB6401706890C000E054D3
:1012E40080B480027C01805090E55574AAF090EAA5
:1012F400AA7455F090E5557480F074AAF090EAAAA7
:101304007455F090E0007430F090E000E0FE54205A
:10131400FDEE5480FEB480047C018006EDB420020E
:101324007B01EC7003EB60E1EB6401701690E0006C
:10133400E05480B480027C0190855574F0F0800301
:0C1344007F0122EC70047F0180027F001A
:01135000227A
:101C1E00EF14602D14604A14606724036003021CE5
:101C2E00B290855574AAF0908AAA7455F090855595
:101C3E007480F074AAF0908AAA7455F09080008097
:101C4E005E90A55574AAF090AAAA7455F090A55569
:101C5E007480F074AAF090AAAA7455F090A0008037
:101C6E003E90C55574AAF090CAAA7455F090C55509
:101C7E007480F074AAF090CAAA7455F090C00080D7
:101C8E001E90E55574AAF090EAAA7455F090E555A9
:101C9E007480F074AAF090EAAA7455F090E0007483
:0A1CAE0030F080037F01227F002246
:101F7900EF14600F1460111460132403701790801C
:101F890000800D90A000800890C000800390E000C0
:0B1F990074B0F080037F01227F002263
:101FA400EF14600F146011146013240370179080F1
:101FB40000800D90A000800890C000800390E00095
:0B1FC4007430F080037F01227F0022B8
:101E5200EF14601714602114602B240370349080F7
:101E620000E020E7037F01227F002290A000E02013
:101E7200E7037F01227F002290C000E020E7037F7A
:101E820001227F002290E000E020E7037F01227F11
:041E920000227F01AA
:011E96002229
:10160F007F0112194A9001CFEFF0BF85057E007F51
:10161F00852290025C7401F0A37401F0A374D0F0E2
:10162F009001CFE0C43354E0FEE42400FFEE348099
:10163F0090025AF0A3EFF0E490025FF0A3F0900253
:10164F005A121CBB90025CE0FBA3E0FAA3E0F9A3E3
:10165F00E0FCA3E0F5828C83EF121B1D900260E08B
:10166F0004F0700690025FE004F0C3900260E09413
:10167F000790025FE0940040C59001CFE0C433545F
:10168F00E0FEE42407FBEE3480FA9001D3E0FEA3E2
:10169F00E0FF7C007D83121B3FEF2BFFEE3A9002A1
:1016AF005AF0A3EFF0A37401F0A37401F0A374D761
:1016BF00F0E4A3F0A3F0C390025FE09420505890A1
:1016CF00025AE0FEA3E0FF121CC5BFFF0990025AA9
:1016DF00E0FEA3E0FF2290025BE02483F090025A29
:1016EF00E03400F09001CFE0C43354E0FEE4247DF9
:1016FF00FFEE349FFEC390025BE09F90025AE09E84
:10170F0040057E007F8022900260E02483F09002EB
:0B171F005FE03400F0809F7E007F89B7
:01172A00229C
:10193A00EEF0A3EFF0A3EBF0A3EAF0E9A3F0E4FFE3
:05194A00900261EFF0C6
:10194F009002727401F0A37402F0A37462F090021B
:10195F00707480F0A3E4F0900275F0900270121C86
:10196F00BB900272E0FBA3E0FAA3E0F9A3E0F582DB
:10197F00758300EF121B1D900275E004F0E0C39415
:10198F000740D89002727401F0A37402F0A3746937
:10199F00F090027074A0F0A3E4F0900275F0900242
:1019AF0070121CBB900272E0FBA3E0FAA3E0F9A354
:1019BF00E0F582758300EF121B1D900275E004F0B5
:1019CF00E0C3940740D8900261E0602914703A9008
:1019DF000262E0FEB4FC0D900269E0B4FE037F01E9
:1019EF00227F0022900269E0B4FC0AEEB4FE037F6E
:1019FF0000227F0122900262E0B4FC037F0022905C
:0B1A0F000269E0B4FC037F01227F00AD
:011A1A0022A9
:0C084600900089EEF0A3EFF0A3ECF0EDC1
:1008520012194690012DEFF0BF85037F852290018A
:100862002DE0B40114A37480F0A3E4F0A374A0F00B
:10087200A3E4F0900095F0801590012E74A0F0A3EF
:10088200E4F0A37480F0A3E4F090009504F09001EA
:10089200237401F0A37400F0A3748DF0900130E092
:1008A200FFA3E0900129CFF0A3EFF0E490012CF038
:1008B200900129121CBB900123E0FBA3E0FAA3E004
:1008C200F990012CE0F582758300EF121B1D900157
:1008D2002CE004F0E0C3940740D6900095E0FF12AC
:1008E20011D4EF60037F8722900095E0F4A3F0908B
:1008F2000090E0FFA3E0900097CFF0A3EFF0A3E415
:10090200F0A37480F090009474FEF090012EE0FF4A
:10091200A3E0900129CFF0A3EFF09001267401F03B
:10092200A37400F0A37494F0E490012CF090012CD5
:10093200E0FDC39407502E900129E475F001121BCB
:1009420067AFF0FE900126E0FBA3E0FAA3E0F98D89
:10095200827583001214E9EF60037F882290012CD4
:10096200E004F080C8E4900121F0A3F0900090E050
:10097200FCA3E0FD900121E0FEA3E0FFC39DEE9CFD
:100982005072900089E0FCA3E0FDEFB5051FEEB5C3
:10099200041BA3E0FCA3E0AA04F990011E7401F079
:1009A200A3EAF0A3E9F0E490012BF080197B017A2D
:1009B20000799B90011EEBF0A3EAF0A3E9F0120E7E
:1009C2009790012BEFF090012BE0F460169001213B
:1009D200E0FEA3E0FF90011EA3E0FAA3E0AC02FD5B
:1009E20012047E900122E004F07006900121E004DE
:1009F200F002096E90008D74F8F0900130E0FFA3D0
:100A0200E0900129CFF0A3EFF0E490012CF09001E7
:100A12002CE0FDC39407502E900129E475F00112D9
:100A22001B67AFF0FE900123E0FBA3E0FAA3E0F91D
:100A32008D827583001214E9EF60037F8822900192
:100A42002CE004F080C890009474FCF090012EE039
:100A5200FFA3E0900129CFF0A3EFF0E490012CF086
:100A620090012CE0FDC39407502E900129E475F00B
:100A720001121B67AFF0FE900126E0FBA3E0FAA390
:100A8200E0F98D827583001214E9EF60037F8822FA
:100A920090012CE004F080C890012DE0FF121C1E92
:080AA200EF60037F87227F0053
:010AAA002229
:0A1D500090009DE0FCA3E0FDE4FF1D
:101D5A009000A574FCF0A3EFF0F4A3F0A3ECF0A3B9
:101D6A00EDF0A3E4F0A37480F0EF70099000AD7475
:101D7A0080F0A3E4F0EFB401099000AD74A0F0A3E1
:101D8A00E4F01211D4EF60037F87229000AF740150
:101D9A00F0A37400F0A374A5F0E49000ACF09000F6
:101DAA00ACE0FDC39407502CA3E475F001121B6745
:101DBA00AFF0FE9000AFE0FBA3E0FAA3E0F98D825A
:101DCA007583001214E9EF60037F88229000ACE06B
:061DDA0004F080CA7F0046
:011DE00022E0
:101DE1009002957401F0A37402F0A3748CF0EFC417
:101DF1003354E0FEE42400FFEE3480900293F0A31C
:101E0100EFF0E4900298F0900293121CBB900295BF
:101E1100E0FBA3E0FAA3E0F9A3E0F582758300EF0C
:101E2100121B1D900298E004F0E0C3940740D89083
:101E3100028CE02408601424FC600D24FE6006146A
:101E4100700C7FFF227FFE227FFC227FF8227F849D
:011E5100226E
:03000B00022022AE
:10202200C0E0C0D075D008C28C7810E6FE08E6F594
:102032008AEEF58CD28C781306E618700106D0D0A1
:03204200D0E032B9
:101FCF00C2AFE47812F608F6C28C5389F043890148
:101FDF007810767D0876DC18E6FE08E6F58AEEF5D1
:0A1FEF008CD2B9D2A9D28CD2AF2255
:0B20EE00C2AF7812E6FE08E6FFD2AF9A
:0120F90022C4
:04204500AD07AC0631
:102049001220EEAB07AA061220EEC3EF9BFFEE9A11
:0D205900FED3EF9DEE9C500543870180EA09
:012066002257
:072120007F017E0002204553
:072127007F647E00022045E9
:06213C00122127022127F9
:0F20C40012213C12213C12213C12213C02213CF2
:07212E007F327E0002204514
:072135007F0A7E0002204535
:03000000021B7D63
:0500630053CFFD003247
:101B7D0074C1F59D75A8C078FFE4F6D8FD900000FE
:101B8D007F007E20E4F0A3DFFCDEFA758120021BCE
:011B9D00D96E
:101F0D008010801F001180008010001F0010000045
:101F1D00000F801080108010000F00000000801056
:101F2D00C01FA010A010A010000000008000C00F66
:081F3D008010801080100008E4
:0C20E10041028B0041027B0041027C00A8
:08000300907E01E020E7F922E4
:08211800907E05E020E7F922AA
:0820B3001220BB1220FDE4FF26
:0920BB00120003907E00EFF022F8
:0320FA001220BBF6
:0920FD00122118907E04EFF0227C
:09210600120003907E02EFF022AA
:09210F00122118907E06EFF02267
:101E97007FE21220FA7FAE1220FA7FA41220BB1233
:101EA70020FD7FA91220BB1220FD7FA01220BB12AC
:101EB70020FD7FEE1220B37FC01220BBE4FF12206B
:0E1EC700FD7FC01220FD7FAF1220BB0220FD68
:0E20D300EF44B8FF1220FDED44B8FF0220BB21
:0B208500FDFF1220D3900043E0FDFFA0
:0E209000EF547FFF1220FDED547FFF0220BBB6
:0321420002210F68
:032145000221066E
:101F4500AE9D439D3CE4FCAF04AD041220D3E4FDFB
:101F5500FF122090E4FF1221421221450DEDB43D00
:101F6500F30CECB404E1E490028BF090027BF0AF4B
:031F7500068F9D37
:011F78002246
:0518460090003DEFF0F1
:10184B00E4900047F0A3F0C20190003FE0F9A3E061
:10185B00FAA3E0900044C9F0A3EAF0A3E9F030004A
:10186B00069000487402F090003DE0900042F0902A
:10187B00003EE0FF90003DE02FFFE433FE9000427E
:10188B00E0FDC39FEE6480F8748098400302193921
:10189B00ED94794003021939900042E0FFD3943C58
:1018AB00400DD201EF75F03D84A3E5F0F08006907A
:1018BB000042E0A3F0900048E0122085900044E045
:1018CB00FBA3E0FAA3E0F9A3E030010EF5827583E8
:1018DB0000121AF0FF122142800CF5827583001260
:1018EB001AF0FF122145900048E004122085900069
:1018FB0047E02401FFE433FE900044E0FBA3E0FA51
:10190B00A3E0F930010D8F828E83121AF0FF1221A2
:10191B0042800B8F828E83121AF0FF1221459000AA
:0E192B0047E02402F0900042E004F002187A37
:01193900228B
:10172B00900033E0FBA3E475F001121B67A9F0FAFC
:10173B00121AD7900031F0E0FF12209E900030EF8C
:10174B00F0FB90028BE0FF90027BE0FDA3E09000AA
:02175B0039F063
:07175D00900036EFF0A90532
:10176400907FE0E090003AF0E4907FE0F090003B5E
:1017740074E0F0A3E4F0FD900039E06045ED20E072
:1017840018EB75F00EA4FFED7583002FFFE583358C
:10179400F0CF2401CF34008016EB75F00EA4FFEDDA
:1017A4007583002FFFE58335F0CF24FFCF34FFFE90
:1017B40090003BE0F8A3E02FF582E83EF583E0F4E7
:1017C4008042ED20E018EB75F00EA4FFED75830068
:1017D4002FFFE58335F0CF2401CF34008016EB755D
:1017E400F00EA4FFED7583002FFFE58335F0CF24C1
:1017F400FFCF34FFFE90003BE0F8A3E02FF582E832
:101804003EF583E0FF747D2DF582E43402F583EF29
:10181400F00DED640E600302177B900036E0FFE9E3
:1018240024FF920090003E7407F0A37401F0A374A7
:1018340002F0A3747DF012184690003AE0907FE025
:01184400F0B3
:011845002280
:0C20670090028BE02407F0900031E0FFB5
:10207300EF540FFFD39409EF50042430FF22243789
:02208300FF223A
:10209E00EF54F0C4540FFFD39409EF50042430FFD3
:0520AE00222437FF228F
:0B135100900005EBF0A3EAF0A3E9F028
:10135C009000337401F0A37400F0A37408F09000B3
:10136C0032E59DF0439D3C90027BE0D39403400218
:10137C00E4F0900005E0FBA3E0FAA3E0F9121AD721
:10138C00FF70030214C6900030EFF0900001121AA7
:10139C00F0FD900030E0FCFEEDFBEBFFECD3948015
:1013AC0050D0900005E0FB121AD7FFB40D1190003D
:1013BC0006E475F001121B51E490028BF080B3EF40
:1013CC00B40A17900006E475F001121B51E4900268
:1013DC008BF090027BE004F08098EF6425600302B0
:1013EC00149D90000675F001121B51900005E0FB56
:1013FC00A3E0FAA3E0F9121AD7FC6464702B9000F6
:10140C000675F001121B51900033E0FBA3E475F05C
:10141C0001121B67A9F0FA121AD7900031F0E054B0
:10142C000F243090003002147DEC6478700D12178C
:10143C002B122067900030EF02148E900005E0FB19
:10144C00A3E0FAA3E0F9121AD7FC6477703090008D
:10145C000675F001121B5112172B12206712174739
:10146C0090028BE02407F012172B122067900030AB
:10147C00EF12174B90028BE02407F002137E9000C2
:10148C0030ECF0FB90028BE0FF90027BE0FDA38040
:10149C001290028BE0FF90027BE0FD900030E0FBAD
:1014AC0090027C12175890028BE02407F0900006F3
:1014BC00E475F001121B5102137E900032E0F59D91
:0114CC0022FD
:101A1B00907FE0E0900006F07EE0E4907FE0F0F550
:101A2B00828E83E0FDA3E0FFEDB41F07EFB4E0036C
:101A3B007F0022C20090003E7407F0A374FFF0A356
:101A4B00741FF0A3740DF0E4FF121846C20090004F
:101A5B003E7407F0A374FFF0A3741FF0A3741BF084
:101A6B007F08121846C20090003E7407F0A374FF63
:101A7B00F0A3741FF0A37429F07F18121846C2004C
:101A8B0090003E7407F0A374FFF0A3741FF0A374CF
:101A9B001BF07F20121846C20090003E7407F0A383
:101AAB0074FFF0A3741FF0A3740DF07F2812184677
:101ABB00C20090003E7407F0A374FFF0A3741FF0F4
:0B1ACB00A37437F07F301218467F0133
:011AD60022ED
:101FF900900005E59DF0439D3C120003121E9712C7
:102009001F457FC01220B31220FD121A1BEF600278
:0820190080FE900005E0F59D3A
:01202100229C
:101B9E00020AABE493A3F8E493A34003F68001F2A8
:101BAE0008DFF48029E493A3F85407240CC8C33348
:101BBE00C4540F4420C8834004F456800146F6DF17
:101BCE00E4800B01020408102040809020E1E47EA6
:101BDE00019360BCA3FF543F30E509541FFEE4930C
:101BEE00A360010ECF54C025E060A840B8E493A3D3
:101BFE00FAE493A3F8E493A3C8C582C8CAC583CAFE
:101C0E00F0A3C8C582C8CAC583CADFE9DEE780BEB5
:0120ED0000F2
:101AD700BB010689828A83E0225002E722BBFE020D
:091AE700E32289828A83E4932240
:101AF000BB010CE58229F582E5833AF583E02250AB
:101B000006E92582F8E622BBFE06E92582F8E222F4
:0D1B1000E58229F582E5833AF583E493220E
:101B1D00F8BB010DE58229F582E5833AF583E8F0FE
:101B2D00225006E92582C8F622BBFE05E92582C8AA
:021B3D00F22292
:101B3F00EF8DF0A4A8F0CF8CF0A428CE8DF0A42EBA
:021B4F00FE2274
:101B5100C5F0F8A3E028F0C5F0F8E582158270021F
:061B61001583E038F022BC
:101B6700A3F8E0C5F025F0F0E58215827002158331
:061B7700E0C838F0E8228E
:00000001FF
