:1003C70050574D20746F204144432044454D4F0002
:1003D7000A50574D3D5858204144433D5858580AF4
:0103E7000015
:10000E00AE02AF018E1A8F1B85171C85181D851920
:10001E001EE4FF051BE51BAC1A7002051A14F582CF
:10002E008C83E493FEAB1C051EE51EAA1D70020513
:0B003E001D14F9EE1203220FBF14D8AE
:010049002294
:1001AF00907FE2E04480F0120334120258907F22D5
:1001BF0074F0F0907F207408F07BFF7A0379C712F8
:1001CF0000681204C875170075180075192E7BFF8B
:1001DF007A0379D712000E75100F751107AF111230
:1001EF00043E120003120003E51070037510FFE5C3
:1001FF0010B40F03E4F510AD10E4FF12040612045F
:10020F00C8AF1112035E8E128F13AF101203F07866
:10021F0033A607AF1012042C7834A607E512FF128D
:10022F00042C783AA607AF131203F0783BA607AF5A
:10023F001312042C783CA6077B007A00792E12004B
:09024F006874102510F510809F61
:10049C00E4F597758EFF758FFF759409007597209D
:0104AC00222D
:10043E00E4F59704A807088002C333D8FCFF428E68
:0A044E00EF428F75940900759720A6
:010458002281
:10035E005397E0EF25E025E0429700004397020017
:10036E00E59730E0FBAF96EFFEAD957C00E42DFFF8
:03037E00EC3EFE54
:010381002259
:10040600EF70184392015393FEE4F5A3F5A275FB32
:0C04160010F5A475A9418DAD43A440224F
:100459007592FFE4F593F5A3F5A275F910F5A47566
:0A046900A9418FAD8FAC43A44022DF
:0304E3008FAD22B8
:03000B000203826B
:10038200C0E0C0D075D008C28C7842E6FE08E6F51F
:100392008AEEF58CD28C784506E618700106D0D02C
:0303A200D0E03276
:10033400C2AFE47844F608F6C28C5389F0438901CD
:100344007842767D0876DC18E6FE08E6F58AEEF556
:0A0354008CD2B9D2A9D28CD2AF220C
:0B04BC00C2AF7844E6FE08E6FFD2AFB6
:0104C7002212
:0403A500AD07AC06EE
:1003A9001204BCAB07AA061204BCC3EF9BFFEE9A6A
:0D03B900FED3EF9DEE9C500543870180EAC6
:0103C6002214
:070003007F017E000203A54E
:0704C8007F647E000203A522
:0604DD001204C80204C86D
:0F04AD001204DD1204DD1204DD1204DD0204DD91
:0704CF007F327E000203A54D
:0704D6007F0A7E000203A56E
:0204E6000A000A
:10025800859D2C439D3C120003907E007430F01263
:100268000003907E007430F0120003907E0074301A
:10027800F0120003907E007438F012000312005050
:1002880012004A740112004C907E007402F01200B1
:1002980050907E007406F0752D80120050907E00FC
:0A02A800E52DF0120050852C9D2278
:06004A00740C907E00F032
:10005000907E01E020E7F9E4FF0F0FEFC3940A4020
:01006000F8A7
:01006100227C
:060068008B148A158916B5
:10006E00752700752800752917859D2C439D3CAB7F
:10007E0014AA15A91612030970030201AB1200503F
:10008E00AB14AA15A916120309FFB40D0D740125A0
:10009E0016F516E43515F5158012EFB40A1974012C
:1000AE002516F516E43515F515632D40532DC09024
:1000BE007E00E52DF080B8EF642560030201930405
:1000CE002516F516E43515F515AB14FAA916120317
:1000DE0009FDB4642574012516F516E43515F515DC
:1000EE00AB270529E529AA287002052814F9120361
:1000FE0009F526540F24300201A4EDB478197401C9
:10010E002516F516E43515F515AB270529E529AAAB
:10011E002870510528804DAB14AA15A91612030993
:10012E006477704E042516F516E43515F515AB27D4
:10013E00E5291529AA2870021528F9120309F526B2
:10014E000529E529AA28700205281203E8120422BF
:10015E00907E02EFF0120050AB270529E529AA2860
:10016E00700205281203E8120422907E02EFF002BC
:10017E00007DAB140516E516AA157002051514F9C7
:10018E001203098011AB140516E516AA15700205A7
:10019E001514F9120309907E02F002007D852C9D44
:0101AE00222E
:10047300859D2C439D3C120050907E007401F075C5
:060483002D80852C9D2256
:0402B2008F2A8D2BD7
:1002B600859D2C439D3C12005012004A907E00748E
:1002C60002F0E52BC39410400F74F0252BF52B7B21
:1002D600FF7A0479E6120068E4FEEEC3952B501609
:1002E600120050E52A907E00B401057410F08003D8
:1002F6007414F00E80E4120050907E00740EF085A7
:020306002C9D2C
:0103080022D2
:0A042200907E02EFF0120050AF26AA
:10042C0053070FEFD39409EF50042430FF222437E5
:02043C00FF229D
:0803E80014F9120309F526FFC8
:1003F0005307F0EFC4540FFFD39409EF5004243097
:06040000FF222437FF2259
:030000000204896E
:0500630053CFFD003247
:1004890074C1F59D75A8C078FFE4F6D8FD7581455E
:030499000201AFAE
:10030900BB010689828A83E0225002E722BBFE02F2
:09031900E32289828A83E4932225
:10032200BB010689828A83F0225002F722BBFE01BA
:02033200F322B4
:00000001FF
