:10099200535049434C4B443D307825780A00543A31
:1009A200257820523A257820524F523A25780A006B
:1006FF00410048066024000002050020001122334B
:10070F004455667788990A0B0C0D0E0F10111213B2
:10071F001415161718191A1B1C1D1E1F60240024F0
:10072F0003050020FFFFFFFFFFFFFFFFFFFFFFFF9E
:10073F00FFFFFFFFFFFFFFFFFFFFFFFFFFFFFFFFBA
:10074F00FFFFFFFF602400490000000000000000D1
:10075F00000000000000000000000000000000008A
:10076F0000000000000000000000000044006DD8F1
:03077F0005002052
:1001DE001209E91208FA907FE2E04480F012092435
:1001EE009000717430F0900071E0FFC394FC4002F7
:1001FE00610DE4900077F0900076F0900075F0902D
:10020E000074F0900073F0900072F08FD21207C756
:10021E007BFF7A097992900071E090007BF01200DA
:10022E006890007B7401F0A37400F0A37449F0A3EE
:10023E007401F0FB7A00794812087D900072EFF09D
:10024E0090007B7401F0A37400F0A37449F0A374C2
:10025E0004F07B017A00796D12087D900075EFF045
:10026E00D28C120A6A120A6AC28C90007B7401F058
:10027E00A37400F0A37449F0A37401F0FB7A007923
:10028E004812087D900074EFF090007B7401F0A38B
:10029E007400F0A37449F0A37424F07B017A007902
:1002AE000012087D900075EFF0D28C12004C1200F7
:1002BE004CC28C90007B7401F0A37400F0A37449BF
:1002CE00F0A37424F07B017A00792412087D90004B
:1002DE0076EFF07BFF7A0979A09000CFE090007B5B
:1002EE00F09000CEE090007CF0A3EFF0120068D208
:1002FE008C120A6AC28C900071E02404F021F48002
:01030E00FEF0
:03005300020800A0
:0D080000C0E0C0F0C083C082C0D075D01031
:10080D00AFD3EF30E314E5D320E4FB53D7FD53D63C
:10081D00BF53D7F79000D07401F0EF30E12890006E
:10082D00D7E0FE9000CFE0C39E501B9000D1120682
:10083D005A1205D6F5D49000D2E475F00112062EA9
:10084D009000CFE004F0EF30E01B9000D412065A78
:10085D00E5D512061C9000D5E475F00112062E9018
:05086D0000CEE004F0E4
:0B087200D0D0D082D083D0F0D0E03294
:1009E9007592F07593F0E4F5D775D23875D61A4338
:0809F900A74043B740D2AF2232
:10087D0090007EE09000D7F09000D11206639000BA
:10088D007B12065A9000D4120663E49000CDF090CE
:10089D0000D0F0E5D320E4FB9000D112065A1205EA
:1008AD00D6F5D49000D2E475F00112062E9000CF4B
:1008BD007401F0E49000CEF043D70143D70443D741
:1008CD000843D70243D64043D6209000D0E0B40170
:1008DD0003D38001C350F39000CEE0FFA3E06F601F
:0D08ED00069000CD7401F09000CDE0FF22D8
:03000B0002094D9A
:10094D00C0E0C0D075D008C28C7818E6FE08E6F578
:10095D008AEEF58CD28C781B06E618700106D0D085
:03096D00D0E032A5
:1008FA00C2AFE4781AF608F6C28C5389F04389012C
:10090A007818767D0876DC18E6FE08E6F58AEEF5B4
:0A091A008CD2B9D2A9D28CD2AF2240
:0B005600C2AF781AE6FE08E6FFD2AF4A
:01006100227C
:04097000AD07AC061D
:10097400120056AB07AA06120056C3EF9BFFEE9A6D
:0D098400FED3EF9DEE9C500543870180EAF5
:010991002243
:07004C007F017E0002097034
:070A6A007F647E00020970A9
:060A7F00120A6A020A6A75
:0F0A2700120A7F120A7F120A7F120A7F020A7FC9
:070A71007F327E00020970D4
:070A78007F0A7E00020970F5
:10078F008010801F001180008010001F00100000DB
:10079F00000F801080108010000F000000008010EC
:1007AF00C01FA010A010A010000000008000C00FFC
:0807BF0080108010801000087A
:0C0782004100CC004100BC004100BD0063
:08000300907E01E020E7F922E4
:080A6200907E05E020E7F92277
:080A1600120A1E120A47E4FF58
:090A1E00120003907E00EFF022AB
:030A4400120A1E75
:090A4700120A62907E04EFF02215
:090A5000120003907E02EFF02277
:090A5900120A62907E06EFF02201
:10000E007FE2120A447FAE120A447FA4120A1E1225
:10001E000A477FA9120A1E120A477FA0120A1E1251
:10002E000A477FEE120A167FC0120A1EE4FF120A5A
:0E003E00477FC0120A477FAF120A1E020A4710
:0E0A3600EF44B8FF120A47ED44B8FF020A1E53
:0B09D000FDFF120A369000B6E0FDFFAC
:0E09DB00EF547FFF120A47ED547FFF020A1E01
:0307FB00020A5996
:030A8500020A5012
:1007C700AE9D439D3CE4FCAF04AD04120A36E4FD44
:1007D700FF1209DBE4FF1207FB120A850DEDB43D9A
:1007E700F30CECB404E1E49000CCF09000BCF0AF63
:0307F700068F9DCD
:0107FA0022DC
:050429009000B0EFF0AF
:10042E00E49000BAF0A3F0C2019000B2E0F9A3E0AC
:10043E00FAA3E09000B7C9F0A3EAF0A3E9F0300008
:10044E00069000BB7402F09000B0E09000B5F09002
:10045E0000B1E0FF9000B0E02FFFE433FE9000B556
:10046E00E0FDC39FEE6480F87480984002A119ED00
:10047E0094794002A1199000B5E0FFD3943C400D51
:10048E00D201EF75F03D84A3E5F0F080069000B543
:10049E00E0A3F09000BBE01209D09000B7E0FBA300
:1004AE00E0FAA3E0F9A3E030010EF58275830012A5
:1004BE0005EFFF1207FB800CF5827583001205EF26
:1004CE00FF120A859000BBE0041209D09000BAE03A
:1004DE002401FFE433FE9000B7E0FBA3E0FAA3E0B3
:1004EE00F930010D8F828E831205EFFF1207FB800C
:1004FE000B8F828E831205EFFF120A859000BAE0F1
:0B050E002402F09000B5E004F0815DD5
:0105190022BF
:10030F009000A6E0FBA3E475F001120644A9F0FAF1
:10031F001205D69000A4F0E0FF120A019000A3EF9F
:10032F00F0FB9000CCE0FF9000BCE0FDA3E090005C
:02033F00ACF020
:070341009000A9EFF0A905EF
:10034800907FE0E09000ADF0E4907FE0F09000AEA8
:1003580074E0F0A3E4F0FD9000ACE06045ED20E02F
:1003680018EB75F00EA4FFED7583002FFFE58335BC
:10037800F0CF2401CF34008016EB75F00EA4FFED0A
:100388007583002FFFE58335F0CF24FFCF34FFFEC0
:100398009000AEE0F8A3E02FF582E83EF583E0F4A4
:1003A8008042ED20E018EB75F00EA4FFED75830098
:1003B8002FFFE58335F0CF2401CF34008016EB758D
:1003C800F00EA4FFED7583002FFFE58335F0CF24F1
:1003D800FFCF34FFFE9000AEE0F8A3E02FF582E8EF
:1003E8003EF583E0FF74BE2DF582E43400F583EF1B
:1003F800F00DED640E6002615F9000A9E0FFE92452
:10040800FF92009000B17407F0A37401F0A3740088
:10041800F0A374BEF01204299000ADE0907FE0F0E4
:0104280022B1
:0C09B2009000CCE02407F09000A4E0FFCF
:1009BE00EF540FFFD39409EF50042430FF22243755
:0209CE00FF2206
:100A0100EF54F0C4540FFFD39409EF50042430FF86
:050A1100222437FF2242
:0B006800900078EBF0A3EAF0A3E9F0B1
:100073009000A67401F0A37400F0A3747BF09000C9
:10008300A5E59DF0439D3C9000BCE0D39403400262
:10009300E4F0900078E0FBA3E0FAA3E0F91205D6C0
:1000A300FF700221D79000A3EFF09000011205EF3B
:1000B300FD9000A3E0FCFEEDFBEBFFECD39480503E
:1000C300D1900078E0FB1205D6FFB40D11900079B2
:1000D300E475F00112062EE49000CCF080B4EFB486
:1000E3000A17900079E475F00112062EE49000CC13
:1000F300F09000BCE004F08099EF6425600221AF2A
:1001030090007975F00112062E900078E0FBA3E0D1
:10011300FAA3E0F91205D6FC6464702A900079759D
:10012300F00112062E9000A6E0FBA3E475F0011285
:100133000644A9F0FA1205D69000A4F0E0540F2467
:10014300309000A32190EC6478700C12030F120915
:10015300B29000A3EF21A0900078E0FBA3E0FAA304
:10016300E0F91205D6FC6477702F90007975F001E1
:1001730012062E12030F1209B212032B9000CCE0C9
:100183002407F012030F1209B29000A3EF12032FFA
:100193009000CCE02407F001959000A3ECF0FB90D5
:1001A30000CCE0FF9000BCE0FDA380129000CCE007
:1001B300FF9000BCE0FD9000A3E0FB9000BD1203A4
:1001C3003C9000CCE02407F0900079E475F0011234
:0A01D300062E01959000A5E0F59DB1
:0101DD0022FF
:10051A00907FE0E0900079F07EE0E4907FE0F0F5F3
:10052A00828E83E0FDA3E0FFEDB41F07EFB4E00382
:10053A007F0022C2009000B17407F0A374FFF0A3F9
:10054A007407F0A3748FF0E4FF120429C20090002C
:10055A00B17407F0A374FFF0A37407F0A3749DF0BD
:10056A007F08120429C2009000B17407F0A374FF37
:10057A00F0A37407F0A374ABF07F18120429C20029
:10058A009000B17407F0A374FFF0A37407F0A3748A
:10059A009DF07F20120429C2009000B17407F0A3D5
:1005AA0074FFF0A37407F0A3748FF07F2812042954
:1005BA00C2009000B17407F0A374FFF0A37407F0AF
:0B05CA00A374B9F07F301204297F01F8
:0105D5002203
:10092400900078E59DF0439D3C12000312000E12E6
:1009340007C77FC0120A16120A4712051AEF60028F
:0809440080FE900078E0F59DB3
:01094C002288
:0300000002066C89
:0500630053CFFD003247
:10066C0074C1F59D75A8C078FFE4F6D8FD7581209E
:03067C000206BAB9
:10067F000201DEE493A3F8E493A34003F68001F2B2
:10068F0008DFF48029E493A3F85407240CC8C3337C
:10069F00C4540F4420C8834004F456800146F6DF4B
:1006AF00E4800B01020408102040809006FFE47ED6
:1006BF00019360BCA3FF543F30E509541FFEE49340
:1006CF00A360010ECF54C025E060A840B8E493A307
:1006DF00FAE493A3F8E493A3C8C582C8CAC583CA32
:1006EF00F0A3C8C582C8CAC583CADFE9DEE780BEEA
:01078E00006A
:1005D600BB010689828A83E0225002E722BBFE0223
:0905E600E32289828A83E4932256
:1005EF00BB010CE58229F582E5833AF583E02250C1
:1005FF0006E92582F8E622BBFE06E92582F8E2220B
:0D060F00E58229F582E5833AF583E4932224
:10061C00BB010689828A83F0225002F722BBFE01BD
:02062C00F322B7
:10062E00C5F0F8A3E028F0C5F0F8E5821582700257
:06063E001583E038F022F4
:10064400A3F8E0C5F025F0F0E58215827002158369
:06065400E0C838F0E822C6
:09065A00E0FBA3E0FAA3E0F922A1
:09066300EBF0A3EAF0A3E9F02298
:00000001FF
